{
  "_format": "hh-sol-artifact-1",
  "contractName": "ReputationOracle",
  "sourceName": "contracts/ReputationOracle.sol",
  "abi": [
    {
      "inputs": [],
      "stateMutability": "nonpayable",
      "type": "constructor"
    },
    {
      "inputs": [
        {
          "internalType": "address",
          "name": "owner",
          "type": "address"
        }
      ],
      "name": "OwnableInvalidOwner",
      "type": "error"
    },
    {
      "inputs": [
        {
          "internalType": "address",
          "name": "account",
          "type": "address"
        }
      ],
      "name": "OwnableUnauthorizedAccount",
      "type": "error"
    },
    {
      "anonymous": false,
      "inputs": [
        {
          "indexed": true,
          "internalType": "address",
          "name": "previousOwner",
          "type": "address"
        },
        {
          "indexed": true,
          "internalType": "address",
          "name": "newOwner",
          "type": "address"
        }
      ],
      "name": "OwnershipTransferred",
      "type": "event"
    },
    {
      "anonymous": false,
      "inputs": [
        {
          "indexed": false,
          "internalType": "string",
          "name": "contributionId",
          "type": "string"
        },
        {
          "indexed": true,
          "internalType": "address",
          "name": "contributor",
          "type": "address"
        },
        {
          "indexed": false,
          "internalType": "uint256",
          "name": "amount",
          "type": "uint256"
        },
        {
          "indexed": false,
          "internalType": "uint256",
          "name": "daoFee",
          "type": "uint256"
        }
      ],
      "name": "RewardClaimed",
      "type": "event"
    },
    {
      "anonymous": false,
      "inputs": [
        {
          "indexed": true,
          "internalType": "address",
          "name": "subject",
          "type": "address"
        },
        {
          "indexed": true,
          "internalType": "address",
          "name": "verifier",
          "type": "address"
        },
        {
          "indexed": false,
          "internalType": "string",
          "name": "reason",
          "type": "string"
        },
        {
          "indexed": false,
          "internalType": "string",
          "name": "contributionId",
          "type": "string"
        }
      ],
      "name": "Verified",
      "type": "event"
    },
    {
      "anonymous": false,
      "inputs": [
        {
          "indexed": false,
          "internalType": "string",
          "name": "contributionId",
          "type": "string"
        },
        {
          "indexed": false,
          "internalType": "address",
          "name": "verifier",
          "type": "address"
        },
        {
          "indexed": false,
          "internalType": "uint256",
          "name": "amount",
          "type": "uint256"
        }
      ],
      "name": "VerifierSlashed",
      "type": "event"
    },
    {
      "inputs": [
        {
          "internalType": "string",
          "name": "contributionId",
          "type": "string"
        },
        {
          "internalType": "address",
          "name": "contributor",
          "type": "address"
        }
      ],
      "name": "claimReward",
      "outputs": [],
      "stateMutability": "nonpayable",
      "type": "function"
    },
    {
      "inputs": [
        {
          "internalType": "string",
          "name": "",
          "type": "string"
        }
      ],
      "name": "contributionBalances",
      "outputs": [
        {
          "internalType": "uint256",
          "name": "",
          "type": "uint256"
        }
      ],
      "stateMutability": "view",
      "type": "function"
    },
    {
      "inputs": [],
      "name": "daoFeeBps",
      "outputs": [
        {
          "internalType": "uint256",
          "name": "",
          "type": "uint256"
        }
      ],
      "stateMutability": "view",
      "type": "function"
    },
    {
      "inputs": [],
      "name": "daoTreasury",
      "outputs": [
        {
          "internalType": "address",
          "name": "",
          "type": "address"
        }
      ],
      "stateMutability": "view",
      "type": "function"
    },
    {
      "inputs": [
        {
          "internalType": "address",
          "name": "user",
          "type": "address"
        }
      ],
      "name": "getTrustScore",
      "outputs": [
        {
          "internalType": "uint256",
          "name": "",
          "type": "uint256"
        }
      ],
      "stateMutability": "view",
      "type": "function"
    },
    {
      "inputs": [],
      "name": "getVerificationCount",
      "outputs": [
        {
          "internalType": "uint256",
          "name": "",
          "type": "uint256"
        }
      ],
      "stateMutability": "view",
      "type": "function"
    },
    {
      "inputs": [],
      "name": "owner",
      "outputs": [
        {
          "internalType": "address",
          "name": "",
          "type": "address"
        }
      ],
      "stateMutability": "view",
      "type": "function"
    },
    {
      "inputs": [],
      "name": "renounceOwnership",
      "outputs": [],
      "stateMutability": "nonpayable",
      "type": "function"
    },
    {
      "inputs": [
        {
          "internalType": "uint256",
          "name": "newBps",
          "type": "uint256"
        }
      ],
      "name": "setDaoFeeBps",
      "outputs": [],
      "stateMutability": "nonpayable",
      "type": "function"
    },
    {
      "inputs": [
        {
          "internalType": "address",
          "name": "newTreasury",
          "type": "address"
        }
      ],
      "name": "setDaoTreasury",
      "outputs": [],
      "stateMutability": "nonpayable",
      "type": "function"
    },
    {
      "inputs": [
        {
          "internalType": "string",
          "name": "contributionId",
          "type": "string"
        },
        {
          "internalType": "address",
          "name": "verifier",
          "type": "address"
        }
      ],
      "name": "slashVerifier",
      "outputs": [],
      "stateMutability": "nonpayable",
      "type": "function"
    },
    {
      "inputs": [
        {
          "internalType": "address",
          "name": "subject",
          "type": "address"
        },
        {
          "internalType": "string",
          "name": "reason",
          "type": "string"
        },
        {
          "internalType": "string",
          "name": "contributionId",
          "type": "string"
        }
      ],
      "name": "submitVerification",
      "outputs": [],
      "stateMutability": "payable",
      "type": "function"
    },
    {
      "inputs": [
        {
          "internalType": "address",
          "name": "newOwner",
          "type": "address"
        }
      ],
      "name": "transferOwnership",
      "outputs": [],
      "stateMutability": "nonpayable",
      "type": "function"
    },
    {
      "inputs": [
        {
          "internalType": "address",
          "name": "",
          "type": "address"
        }
      ],
      "name": "trustScores",
      "outputs": [
        {
          "internalType": "uint256",
          "name": "",
          "type": "uint256"
        }
      ],
      "stateMutability": "view",
      "type": "function"
    },
    {
      "inputs": [
        {
          "internalType": "uint256",
          "name": "",
          "type": "uint256"
        }
      ],
      "name": "verifications",
      "outputs": [
        {
          "internalType": "address",
          "name": "subject",
          "type": "address"
        },
        {
          "internalType": "address",
          "name": "verifier",
          "type": "address"
        },
        {
          "internalType": "string",
          "name": "reason",
          "type": "string"
        },
        {
          "internalType": "uint256",
          "name": "timestamp",
          "type": "uint256"
        },
        {
          "internalType": "string",
          "name": "contributionId",
          "type": "string"
        }
      ],
      "stateMutability": "view",
      "type": "function"
    },
    {
      "inputs": [
        {
          "internalType": "string",
          "name": "",
          "type": "string"
        },
        {
          "internalType": "address",
          "name": "",
          "type": "address"
        }
      ],
      "name": "verifierStakes",
      "outputs": [
        {
          "internalType": "uint256",
          "name": "",
          "type": "uint256"
        }
      ],
      "stateMutability": "view",
      "type": "function"
    }
  ],
  "bytecode": "0x60806040526101f46006553480156200001757600080fd5b5033600073ffffffffffffffffffffffffffffffffffffffff168173ffffffffffffffffffffffffffffffffffffffff16036200008e5760006040517f1e4fbdf700000000000000000000000000000000000000000000000000000000815260040162000085919062000204565b60405180910390fd5b6200009f81620000fb60201b60201c565b5073bddbb7b866e2549066e0bfd27c409900156d1470600560006101000a81548173ffffffffffffffffffffffffffffffffffffffff021916908373ffffffffffffffffffffffffffffffffffffffff16021790555062000221565b60008060009054906101000a900473ffffffffffffffffffffffffffffffffffffffff169050816000806101000a81548173ffffffffffffffffffffffffffffffffffffffff021916908373ffffffffffffffffffffffffffffffffffffffff1602179055508173ffffffffffffffffffffffffffffffffffffffff168173ffffffffffffffffffffffffffffffffffffffff167f8be0079c531659141344cd1fd0a4f28419497f9722a3daafe3b4186f6b6457e060405160405180910390a35050565b600073ffffffffffffffffffffffffffffffffffffffff82169050919050565b6000620001ec82620001bf565b9050919050565b620001fe81620001df565b82525050565b60006020820190506200021b6000830184620001f3565b92915050565b61209a80620002316000396000f3fe6080604052600436106100f35760003560e01c806379022a9f1161008a578063b90b0a1011610059578063b90b0a101461032a578063ec6910a91461036b578063f2fde38b14610387578063fe1f3181146103b0576100f3565b806379022a9f146102805780638da5cb5b146102ab5780638e8a3b0b146102d6578063a124df5d14610301576100f3565b8063368b52c6116100c6578063368b52c6146101c65780634402aeb7146101ef5780635e09eea11461022c578063715018a614610269576100f3565b806306cad720146100f85780630fb10b6d1461012157806312df0fc41461015e5780631f05b3741461019b575b600080fd5b34801561010457600080fd5b5061011f600480360381019061011a91906113f5565b6103d9565b005b34801561012d57600080fd5b50610148600480360381019061014391906113f5565b610629565b604051610155919061146a565b60405180910390f35b34801561016a57600080fd5b5061018560048036038101906101809190611485565b610664565b604051610192919061146a565b60405180910390f35b3480156101a757600080fd5b506101b061067c565b6040516101bd919061146a565b60405180910390f35b3480156101d257600080fd5b506101ed60048036038101906101e891906114de565b610689565b005b3480156101fb57600080fd5b506102166004803603810190610211919061150b565b6106e0565b604051610223919061146a565b60405180910390f35b34801561023857600080fd5b50610253600480360381019061024e9190611485565b61070e565b604051610260919061146a565b60405180910390f35b34801561027557600080fd5b5061027e610757565b005b34801561028c57600080fd5b5061029561076b565b6040516102a29190611563565b60405180910390f35b3480156102b757600080fd5b506102c0610791565b6040516102cd9190611563565b60405180910390f35b3480156102e257600080fd5b506102eb6107ba565b6040516102f8919061146a565b60405180910390f35b34801561030d57600080fd5b5061032860048036038101906103239190611485565b6107c0565b005b34801561033657600080fd5b50610351600480360381019061034c91906114de565b61080c565b6040516103629594939291906115fd565b60405180910390f35b6103856004803603810190610380919061165e565b6109a2565b005b34801561039357600080fd5b506103ae60048036038101906103a99190611485565b610dce565b005b3480156103bc57600080fd5b506103d760048036038101906103d291906113f5565b610e54565b005b6103e16110ea565b60006004836040516103f39190611725565b908152602001604051809103902060008373ffffffffffffffffffffffffffffffffffffffff1673ffffffffffffffffffffffffffffffffffffffff16815260200190815260200160002054905060008111610484576040517f08c379a000000000000000000000000000000000000000000000000000000000815260040161047b90611788565b60405180910390fd5b60006004846040516104969190611725565b908152602001604051809103902060008473ffffffffffffffffffffffffffffffffffffffff1673ffffffffffffffffffffffffffffffffffffffff16815260200190815260200160002081905550806003846040516104f69190611725565b9081526020016040518091039020600082825461051391906117d7565b925050819055506000600560009054906101000a900473ffffffffffffffffffffffffffffffffffffffff1673ffffffffffffffffffffffffffffffffffffffff16826040516105629061183c565b60006040518083038185875af1925050503d806000811461059f576040519150601f19603f3d011682016040523d82523d6000602084013e6105a4565b606091505b50509050806105e8576040517f08c379a00000000000000000000000000000000000000000000000000000000081526004016105df906118c3565b60405180910390fd5b7fff899d5369d1b8ffa6aaf9dd4cea0ff2e1d40b94c2dd81759fcd22718661b25f84848460405161061b939291906118e3565b60405180910390a150505050565b600482805160208101820180518482526020830160208501208183528095505050505050602052806000526040600020600091509150505481565b60026020528060005260406000206000915090505481565b6000600180549050905090565b6106916110ea565b6103e88111156106d6576040517f08c379a00000000000000000000000000000000000000000000000000000000081526004016106cd9061196d565b60405180910390fd5b8060068190555050565b6003818051602081018201805184825260208301602085012081835280955050505050506000915090505481565b6000600260008373ffffffffffffffffffffffffffffffffffffffff1673ffffffffffffffffffffffffffffffffffffffff168152602001908152602001600020549050919050565b61075f6110ea565b6107696000611171565b565b600560009054906101000a900473ffffffffffffffffffffffffffffffffffffffff1681565b60008060009054906101000a900473ffffffffffffffffffffffffffffffffffffffff16905090565b60065481565b6107c86110ea565b80600560006101000a81548173ffffffffffffffffffffffffffffffffffffffff021916908373ffffffffffffffffffffffffffffffffffffffff16021790555050565b6001818154811061081c57600080fd5b90600052602060002090600502016000915090508060000160009054906101000a900473ffffffffffffffffffffffffffffffffffffffff16908060010160009054906101000a900473ffffffffffffffffffffffffffffffffffffffff169080600201805461088b906119bc565b80601f01602080910402602001604051908101604052809291908181526020018280546108b7906119bc565b80156109045780601f106108d957610100808354040283529160200191610904565b820191906000526020600020905b8154815290600101906020018083116108e757829003601f168201915b50505050509080600301549080600401805461091f906119bc565b80601f016020809104026020016040519081016040528092919081815260200182805461094b906119bc565b80156109985780601f1061096d57610100808354040283529160200191610998565b820191906000526020600020905b81548152906001019060200180831161097b57829003601f168201915b5050505050905085565b600073ffffffffffffffffffffffffffffffffffffffff168373ffffffffffffffffffffffffffffffffffffffff1603610a11576040517f08c379a0000000000000000000000000000000000000000000000000000000008152600401610a0890611a39565b60405180910390fd5b3373ffffffffffffffffffffffffffffffffffffffff168373ffffffffffffffffffffffffffffffffffffffff1603610a7f576040517f08c379a0000000000000000000000000000000000000000000000000000000008152600401610a7690611aa5565b60405180910390fd5b662386f26fc10000341015610ac9576040517f08c379a0000000000000000000000000000000000000000000000000000000008152600401610ac090611b11565b60405180910390fd5b60016040518060a001604052808573ffffffffffffffffffffffffffffffffffffffff1681526020013373ffffffffffffffffffffffffffffffffffffffff16815260200184815260200142815260200183815250908060018154018082558091505060019003906000526020600020906005020160009091909190915060008201518160000160006101000a81548173ffffffffffffffffffffffffffffffffffffffff021916908373ffffffffffffffffffffffffffffffffffffffff16021790555060208201518160010160006101000a81548173ffffffffffffffffffffffffffffffffffffffff021916908373ffffffffffffffffffffffffffffffffffffffff1602179055506040820151816002019081610bea9190611cdd565b50606082015181600301556080820151816004019081610c0a9190611cdd565b505050600a600260008573ffffffffffffffffffffffffffffffffffffffff1673ffffffffffffffffffffffffffffffffffffffff1681526020019081526020016000206000828254610c5d9190611daf565b925050819055506005600260003373ffffffffffffffffffffffffffffffffffffffff1673ffffffffffffffffffffffffffffffffffffffff1681526020019081526020016000206000828254610cb49190611daf565b9250508190555034600382604051610ccc9190611725565b90815260200160405180910390206000828254610ce99190611daf565b9250508190555034600482604051610d019190611725565b908152602001604051809103902060003373ffffffffffffffffffffffffffffffffffffffff1673ffffffffffffffffffffffffffffffffffffffff1681526020019081526020016000206000828254610d5b9190611daf565b925050819055503373ffffffffffffffffffffffffffffffffffffffff168373ffffffffffffffffffffffffffffffffffffffff167f3552ea3b5f22ea481310e2a85853cde86b4179d2042ad9859d85e91ff757d76c8484604051610dc1929190611de3565b60405180910390a3505050565b610dd66110ea565b600073ffffffffffffffffffffffffffffffffffffffff168173ffffffffffffffffffffffffffffffffffffffff1603610e485760006040517f1e4fbdf7000000000000000000000000000000000000000000000000000000008152600401610e3f9190611563565b60405180910390fd5b610e5181611171565b50565b610e5c6110ea565b6000600383604051610e6e9190611725565b908152602001604051809103902054905060008111610ec2576040517f08c379a0000000000000000000000000000000000000000000000000000000008152600401610eb990611e66565b60405180910390fd5b600061271060065483610ed59190611e86565b610edf9190611ef7565b905060008183610eef91906117d7565b90506000600386604051610f039190611725565b90815260200160405180910390208190555060008473ffffffffffffffffffffffffffffffffffffffff1682604051610f3b9061183c565b60006040518083038185875af1925050503d8060008114610f78576040519150601f19603f3d011682016040523d82523d6000602084013e610f7d565b606091505b5050905080610fc1576040517f08c379a0000000000000000000000000000000000000000000000000000000008152600401610fb890611f9a565b60405180910390fd5b6000600560009054906101000a900473ffffffffffffffffffffffffffffffffffffffff1673ffffffffffffffffffffffffffffffffffffffff16846040516110099061183c565b60006040518083038185875af1925050503d8060008114611046576040519150601f19603f3d011682016040523d82523d6000602084013e61104b565b606091505b505090508061108f576040517f08c379a000000000000000000000000000000000000000000000000000000000815260040161108690612006565b60405180910390fd5b8573ffffffffffffffffffffffffffffffffffffffff167fb55c5d24f032fde07ae43e1c485a5204d17225fc7d79318955976775412338f48885876040516110d993929190612026565b60405180910390a250505050505050565b6110f2611235565b73ffffffffffffffffffffffffffffffffffffffff16611110610791565b73ffffffffffffffffffffffffffffffffffffffff161461116f57611133611235565b6040517f118cdaa70000000000000000000000000000000000000000000000000000000081526004016111669190611563565b60405180910390fd5b565b60008060009054906101000a900473ffffffffffffffffffffffffffffffffffffffff169050816000806101000a81548173ffffffffffffffffffffffffffffffffffffffff021916908373ffffffffffffffffffffffffffffffffffffffff1602179055508173ffffffffffffffffffffffffffffffffffffffff168173ffffffffffffffffffffffffffffffffffffffff167f8be0079c531659141344cd1fd0a4f28419497f9722a3daafe3b4186f6b6457e060405160405180910390a35050565b600033905090565b6000604051905090565b600080fd5b600080fd5b600080fd5b600080fd5b6000601f19601f8301169050919050565b7f4e487b7100000000000000000000000000000000000000000000000000000000600052604160045260246000fd5b6112a48261125b565b810181811067ffffffffffffffff821117156112c3576112c261126c565b5b80604052505050565b60006112d661123d565b90506112e2828261129b565b919050565b600067ffffffffffffffff8211156113025761130161126c565b5b61130b8261125b565b9050602081019050919050565b82818337600083830152505050565b600061133a611335846112e7565b6112cc565b90508281526020810184848401111561135657611355611256565b5b611361848285611318565b509392505050565b600082601f83011261137e5761137d611251565b5b813561138e848260208601611327565b91505092915050565b600073ffffffffffffffffffffffffffffffffffffffff82169050919050565b60006113c282611397565b9050919050565b6113d2816113b7565b81146113dd57600080fd5b50565b6000813590506113ef816113c9565b92915050565b6000806040838503121561140c5761140b611247565b5b600083013567ffffffffffffffff81111561142a5761142961124c565b5b61143685828601611369565b9250506020611447858286016113e0565b9150509250929050565b6000819050919050565b61146481611451565b82525050565b600060208201905061147f600083018461145b565b92915050565b60006020828403121561149b5761149a611247565b5b60006114a9848285016113e0565b91505092915050565b6114bb81611451565b81146114c657600080fd5b50565b6000813590506114d8816114b2565b92915050565b6000602082840312156114f4576114f3611247565b5b6000611502848285016114c9565b91505092915050565b60006020828403121561152157611520611247565b5b600082013567ffffffffffffffff81111561153f5761153e61124c565b5b61154b84828501611369565b91505092915050565b61155d816113b7565b82525050565b60006020820190506115786000830184611554565b92915050565b600081519050919050565b600082825260208201905092915050565b60005b838110156115b857808201518184015260208101905061159d565b60008484015250505050565b60006115cf8261157e565b6115d98185611589565b93506115e981856020860161159a565b6115f28161125b565b840191505092915050565b600060a0820190506116126000830188611554565b61161f6020830187611554565b818103604083015261163181866115c4565b9050611640606083018561145b565b818103608083015261165281846115c4565b90509695505050505050565b60008060006060848603121561167757611676611247565b5b6000611685868287016113e0565b935050602084013567ffffffffffffffff8111156116a6576116a561124c565b5b6116b286828701611369565b925050604084013567ffffffffffffffff8111156116d3576116d261124c565b5b6116df86828701611369565b9150509250925092565b600081905092915050565b60006116ff8261157e565b61170981856116e9565b935061171981856020860161159a565b80840191505092915050565b600061173182846116f4565b915081905092915050565b7f4e6f207374616b6520746f20736c617368000000000000000000000000000000600082015250565b6000611772601183611589565b915061177d8261173c565b602082019050919050565b600060208201905081810360008301526117a181611765565b9050919050565b7f4e487b7100000000000000000000000000000000000000000000000000000000600052601160045260246000fd5b60006117e282611451565b91506117ed83611451565b9250828203905081811115611805576118046117a8565b5b92915050565b600081905092915050565b50565b600061182660008361180b565b915061183182611816565b600082019050919050565b600061184782611819565b9150819050919050565b7f4661696c656420746f2073656e6420736c6173686564204156415820746f204460008201527f414f000000000000000000000000000000000000000000000000000000000000602082015250565b60006118ad602283611589565b91506118b882611851565b604082019050919050565b600060208201905081810360008301526118dc816118a0565b9050919050565b600060608201905081810360008301526118fd81866115c4565b905061190c6020830185611554565b611919604083018461145b565b949350505050565b7f46656520746f6f20686967680000000000000000000000000000000000000000600082015250565b6000611957600c83611589565b915061196282611921565b602082019050919050565b600060208201905081810360008301526119868161194a565b9050919050565b7f4e487b7100000000000000000000000000000000000000000000000000000000600052602260045260246000fd5b600060028204905060018216806119d457607f821691505b6020821081036119e7576119e661198d565b5b50919050565b7f496e76616c6964207375626a6563740000000000000000000000000000000000600082015250565b6000611a23600f83611589565b9150611a2e826119ed565b602082019050919050565b60006020820190508181036000830152611a5281611a16565b9050919050565b7f43616e6e6f74207665726966792073656c660000000000000000000000000000600082015250565b6000611a8f601283611589565b9150611a9a82611a59565b602082019050919050565b60006020820190508181036000830152611abe81611a82565b9050919050565b7f496e73756666696369656e7420415641582073656e7400000000000000000000600082015250565b6000611afb601683611589565b9150611b0682611ac5565b602082019050919050565b60006020820190508181036000830152611b2a81611aee565b9050919050565b60008190508160005260206000209050919050565b60006020601f8301049050919050565b600082821b905092915050565b600060088302611b937fffffffffffffffffffffffffffffffffffffffffffffffffffffffffffffffff82611b56565b611b9d8683611b56565b95508019841693508086168417925050509392505050565b6000819050919050565b6000611bda611bd5611bd084611451565b611bb5565b611451565b9050919050565b6000819050919050565b611bf483611bbf565b611c08611c0082611be1565b848454611b63565b825550505050565b600090565b611c1d611c10565b611c28818484611beb565b505050565b5b81811015611c4c57611c41600082611c15565b600181019050611c2e565b5050565b601f821115611c9157611c6281611b31565b611c6b84611b46565b81016020851015611c7a578190505b611c8e611c8685611b46565b830182611c2d565b50505b505050565b600082821c905092915050565b6000611cb460001984600802611c96565b1980831691505092915050565b6000611ccd8383611ca3565b9150826002028217905092915050565b611ce68261157e565b67ffffffffffffffff811115611cff57611cfe61126c565b5b611d0982546119bc565b611d14828285611c50565b600060209050601f831160018114611d475760008415611d35578287015190505b611d3f8582611cc1565b865550611da7565b601f198416611d5586611b31565b60005b82811015611d7d57848901518255600182019150602085019450602081019050611d58565b86831015611d9a5784890151611d96601f891682611ca3565b8355505b6001600288020188555050505b505050505050565b6000611dba82611451565b9150611dc583611451565b9250828201905080821115611ddd57611ddc6117a8565b5b92915050565b60006040820190508181036000830152611dfd81856115c4565b90508181036020830152611e1181846115c4565b90509392505050565b7f4e6f2072657761726420746f20636c61696d0000000000000000000000000000600082015250565b6000611e50601283611589565b9150611e5b82611e1a565b602082019050919050565b60006020820190508181036000830152611e7f81611e43565b9050919050565b6000611e9182611451565b9150611e9c83611451565b9250828202611eaa81611451565b91508282048414831517611ec157611ec06117a8565b5b5092915050565b7f4e487b7100000000000000000000000000000000000000000000000000000000600052601260045260246000fd5b6000611f0282611451565b9150611f0d83611451565b925082611f1d57611f1c611ec8565b5b828204905092915050565b7f4661696c656420746f2073656e64204156415820746f20636f6e74726962757460008201527f6f72000000000000000000000000000000000000000000000000000000000000602082015250565b6000611f84602283611589565b9150611f8f82611f28565b604082019050919050565b60006020820190508181036000830152611fb381611f77565b9050919050565b7f4661696c656420746f2073656e64204156415820746f2044414f000000000000600082015250565b6000611ff0601a83611589565b9150611ffb82611fba565b602082019050919050565b6000602082019050818103600083015261201f81611fe3565b9050919050565b6000606082019050818103600083015261204081866115c4565b905061204f602083018561145b565b61205c604083018461145b565b94935050505056fea26469706673582212201944a85362c6ced14b26416f39f42d4588bc90611f077e92835fd1b5c411ccb664736f6c63430008140033",
  "linkReferences": {},
  "deployedLinkReferences": {}
}