{
  "_format": "hh-sol-artifact-1",
  "contractName": "SoulboundToken",
  "sourceName": "contracts/SoulboundToken.sol",
  "abi": [
    {
      "inputs": [],
      "stateMutability": "nonpayable",
      "type": "constructor"
    },
    {
      "inputs": [
        {
          "internalType": "address",
          "name": "sender",
          "type": "address"
        },
        {
          "internalType": "uint256",
          "name": "tokenId",
          "type": "uint256"
        },
        {
          "internalType": "address",
          "name": "owner",
          "type": "address"
        }
      ],
      "name": "ERC721IncorrectOwner",
      "type": "error"
    },
    {
      "inputs": [
        {
          "internalType": "address",
          "name": "operator",
          "type": "address"
        },
        {
          "internalType": "uint256",
          "name": "tokenId",
          "type": "uint256"
        }
      ],
      "name": "ERC721InsufficientApproval",
      "type": "error"
    },
    {
      "inputs": [
        {
          "internalType": "address",
          "name": "approver",
          "type": "address"
        }
      ],
      "name": "ERC721InvalidApprover",
      "type": "error"
    },
    {
      "inputs": [
        {
          "internalType": "address",
          "name": "operator",
          "type": "address"
        }
      ],
      "name": "ERC721InvalidOperator",
      "type": "error"
    },
    {
      "inputs": [
        {
          "internalType": "address",
          "name": "owner",
          "type": "address"
        }
      ],
      "name": "ERC721InvalidOwner",
      "type": "error"
    },
    {
      "inputs": [
        {
          "internalType": "address",
          "name": "receiver",
          "type": "address"
        }
      ],
      "name": "ERC721InvalidReceiver",
      "type": "error"
    },
    {
      "inputs": [
        {
          "internalType": "address",
          "name": "sender",
          "type": "address"
        }
      ],
      "name": "ERC721InvalidSender",
      "type": "error"
    },
    {
      "inputs": [
        {
          "internalType": "uint256",
          "name": "tokenId",
          "type": "uint256"
        }
      ],
      "name": "ERC721NonexistentToken",
      "type": "error"
    },
    {
      "inputs": [
        {
          "internalType": "address",
          "name": "owner",
          "type": "address"
        }
      ],
      "name": "OwnableInvalidOwner",
      "type": "error"
    },
    {
      "inputs": [
        {
          "internalType": "address",
          "name": "account",
          "type": "address"
        }
      ],
      "name": "OwnableUnauthorizedAccount",
      "type": "error"
    },
    {
      "anonymous": false,
      "inputs": [
        {
          "indexed": true,
          "internalType": "address",
          "name": "owner",
          "type": "address"
        },
        {
          "indexed": true,
          "internalType": "address",
          "name": "approved",
          "type": "address"
        },
        {
          "indexed": true,
          "internalType": "uint256",
          "name": "tokenId",
          "type": "uint256"
        }
      ],
      "name": "Approval",
      "type": "event"
    },
    {
      "anonymous": false,
      "inputs": [
        {
          "indexed": true,
          "internalType": "address",
          "name": "owner",
          "type": "address"
        },
        {
          "indexed": true,
          "internalType": "address",
          "name": "operator",
          "type": "address"
        },
        {
          "indexed": false,
          "internalType": "bool",
          "name": "approved",
          "type": "bool"
        }
      ],
      "name": "ApprovalForAll",
      "type": "event"
    },
    {
      "anonymous": false,
      "inputs": [
        {
          "indexed": false,
          "internalType": "uint256",
          "name": "_fromTokenId",
          "type": "uint256"
        },
        {
          "indexed": false,
          "internalType": "uint256",
          "name": "_toTokenId",
          "type": "uint256"
        }
      ],
      "name": "BatchMetadataUpdate",
      "type": "event"
    },
    {
      "anonymous": false,
      "inputs": [
        {
          "indexed": false,
          "internalType": "uint256",
          "name": "_tokenId",
          "type": "uint256"
        }
      ],
      "name": "MetadataUpdate",
      "type": "event"
    },
    {
      "anonymous": false,
      "inputs": [
        {
          "indexed": true,
          "internalType": "address",
          "name": "to",
          "type": "address"
        },
        {
          "indexed": true,
          "internalType": "uint256",
          "name": "tokenId",
          "type": "uint256"
        },
        {
          "indexed": false,
          "internalType": "string",
          "name": "dao",
          "type": "string"
        },
        {
          "indexed": false,
          "internalType": "string",
          "name": "reason",
          "type": "string"
        }
      ],
      "name": "Minted",
      "type": "event"
    },
    {
      "anonymous": false,
      "inputs": [
        {
          "indexed": true,
          "internalType": "address",
          "name": "previousOwner",
          "type": "address"
        },
        {
          "indexed": true,
          "internalType": "address",
          "name": "newOwner",
          "type": "address"
        }
      ],
      "name": "OwnershipTransferred",
      "type": "event"
    },
    {
      "anonymous": false,
      "inputs": [
        {
          "indexed": true,
          "internalType": "address",
          "name": "from",
          "type": "address"
        },
        {
          "indexed": true,
          "internalType": "address",
          "name": "to",
          "type": "address"
        },
        {
          "indexed": true,
          "internalType": "uint256",
          "name": "tokenId",
          "type": "uint256"
        }
      ],
      "name": "Transfer",
      "type": "event"
    },
    {
      "inputs": [
        {
          "internalType": "address",
          "name": "to",
          "type": "address"
        },
        {
          "internalType": "uint256",
          "name": "tokenId",
          "type": "uint256"
        }
      ],
      "name": "approve",
      "outputs": [],
      "stateMutability": "nonpayable",
      "type": "function"
    },
    {
      "inputs": [
        {
          "internalType": "address",
          "name": "owner",
          "type": "address"
        }
      ],
      "name": "balanceOf",
      "outputs": [
        {
          "internalType": "uint256",
          "name": "",
          "type": "uint256"
        }
      ],
      "stateMutability": "view",
      "type": "function"
    },
    {
      "inputs": [
        {
          "internalType": "uint256",
          "name": "tokenId",
          "type": "uint256"
        }
      ],
      "name": "getApproved",
      "outputs": [
        {
          "internalType": "address",
          "name": "",
          "type": "address"
        }
      ],
      "stateMutability": "view",
      "type": "function"
    },
    {
      "inputs": [
        {
          "internalType": "address",
          "name": "owner",
          "type": "address"
        },
        {
          "internalType": "address",
          "name": "operator",
          "type": "address"
        }
      ],
      "name": "isApprovedForAll",
      "outputs": [
        {
          "internalType": "bool",
          "name": "",
          "type": "bool"
        }
      ],
      "stateMutability": "view",
      "type": "function"
    },
    {
      "inputs": [
        {
          "internalType": "address",
          "name": "to",
          "type": "address"
        },
        {
          "internalType": "string",
          "name": "dao",
          "type": "string"
        },
        {
          "internalType": "string",
          "name": "reason",
          "type": "string"
        },
        {
          "internalType": "string",
          "name": "tokenURI",
          "type": "string"
        }
      ],
      "name": "mint",
      "outputs": [],
      "stateMutability": "nonpayable",
      "type": "function"
    },
    {
      "inputs": [],
      "name": "name",
      "outputs": [
        {
          "internalType": "string",
          "name": "",
          "type": "string"
        }
      ],
      "stateMutability": "view",
      "type": "function"
    },
    {
      "inputs": [],
      "name": "nextTokenId",
      "outputs": [
        {
          "internalType": "uint256",
          "name": "",
          "type": "uint256"
        }
      ],
      "stateMutability": "view",
      "type": "function"
    },
    {
      "inputs": [],
      "name": "owner",
      "outputs": [
        {
          "internalType": "address",
          "name": "",
          "type": "address"
        }
      ],
      "stateMutability": "view",
      "type": "function"
    },
    {
      "inputs": [
        {
          "internalType": "uint256",
          "name": "tokenId",
          "type": "uint256"
        }
      ],
      "name": "ownerOf",
      "outputs": [
        {
          "internalType": "address",
          "name": "",
          "type": "address"
        }
      ],
      "stateMutability": "view",
      "type": "function"
    },
    {
      "inputs": [],
      "name": "renounceOwnership",
      "outputs": [],
      "stateMutability": "nonpayable",
      "type": "function"
    },
    {
      "inputs": [
        {
          "internalType": "address",
          "name": "from",
          "type": "address"
        },
        {
          "internalType": "address",
          "name": "to",
          "type": "address"
        },
        {
          "internalType": "uint256",
          "name": "tokenId",
          "type": "uint256"
        }
      ],
      "name": "safeTransferFrom",
      "outputs": [],
      "stateMutability": "nonpayable",
      "type": "function"
    },
    {
      "inputs": [
        {
          "internalType": "address",
          "name": "from",
          "type": "address"
        },
        {
          "internalType": "address",
          "name": "to",
          "type": "address"
        },
        {
          "internalType": "uint256",
          "name": "tokenId",
          "type": "uint256"
        },
        {
          "internalType": "bytes",
          "name": "data",
          "type": "bytes"
        }
      ],
      "name": "safeTransferFrom",
      "outputs": [],
      "stateMutability": "nonpayable",
      "type": "function"
    },
    {
      "inputs": [
        {
          "internalType": "address",
          "name": "operator",
          "type": "address"
        },
        {
          "internalType": "bool",
          "name": "approved",
          "type": "bool"
        }
      ],
      "name": "setApprovalForAll",
      "outputs": [],
      "stateMutability": "nonpayable",
      "type": "function"
    },
    {
      "inputs": [
        {
          "internalType": "address",
          "name": "",
          "type": "address"
        }
      ],
      "name": "soulboundCount",
      "outputs": [
        {
          "internalType": "uint256",
          "name": "",
          "type": "uint256"
        }
      ],
      "stateMutability": "view",
      "type": "function"
    },
    {
      "inputs": [
        {
          "internalType": "bytes4",
          "name": "interfaceId",
          "type": "bytes4"
        }
      ],
      "name": "supportsInterface",
      "outputs": [
        {
          "internalType": "bool",
          "name": "",
          "type": "bool"
        }
      ],
      "stateMutability": "view",
      "type": "function"
    },
    {
      "inputs": [],
      "name": "symbol",
      "outputs": [
        {
          "internalType": "string",
          "name": "",
          "type": "string"
        }
      ],
      "stateMutability": "view",
      "type": "function"
    },
    {
      "inputs": [
        {
          "internalType": "uint256",
          "name": "tokenId",
          "type": "uint256"
        }
      ],
      "name": "tokenURI",
      "outputs": [
        {
          "internalType": "string",
          "name": "",
          "type": "string"
        }
      ],
      "stateMutability": "view",
      "type": "function"
    },
    {
      "inputs": [
        {
          "internalType": "address",
          "name": "from",
          "type": "address"
        },
        {
          "internalType": "address",
          "name": "to",
          "type": "address"
        },
        {
          "internalType": "uint256",
          "name": "tokenId",
          "type": "uint256"
        }
      ],
      "name": "transferFrom",
      "outputs": [],
      "stateMutability": "nonpayable",
      "type": "function"
    },
    {
      "inputs": [
        {
          "internalType": "address",
          "name": "newOwner",
          "type": "address"
        }
      ],
      "name": "transferOwnership",
      "outputs": [],
      "stateMutability": "nonpayable",
      "type": "function"
    }
  ],
  "bytecode": "0x60806040523480156200001157600080fd5b50336040518060400160405280601281526020017f536f6c766572736520536f756c626f756e6400000000000000000000000000008152506040518060400160405280600381526020017f5342540000000000000000000000000000000000000000000000000000000000815250816000908162000090919062000472565b508060019081620000a2919062000472565b505050600073ffffffffffffffffffffffffffffffffffffffff168173ffffffffffffffffffffffffffffffffffffffff16036200011a5760006040517f1e4fbdf70000000000000000000000000000000000000000000000000000000081526004016200011191906200059e565b60405180910390fd5b6200012b816200013260201b60201c565b50620005bb565b6000600760009054906101000a900473ffffffffffffffffffffffffffffffffffffffff16905081600760006101000a81548173ffffffffffffffffffffffffffffffffffffffff021916908373ffffffffffffffffffffffffffffffffffffffff1602179055508173ffffffffffffffffffffffffffffffffffffffff168173ffffffffffffffffffffffffffffffffffffffff167f8be0079c531659141344cd1fd0a4f28419497f9722a3daafe3b4186f6b6457e060405160405180910390a35050565b600081519050919050565b7f4e487b7100000000000000000000000000000000000000000000000000000000600052604160045260246000fd5b7f4e487b7100000000000000000000000000000000000000000000000000000000600052602260045260246000fd5b600060028204905060018216806200027a57607f821691505b60208210810362000290576200028f62000232565b5b50919050565b60008190508160005260206000209050919050565b60006020601f8301049050919050565b600082821b905092915050565b600060088302620002fa7fffffffffffffffffffffffffffffffffffffffffffffffffffffffffffffffff82620002bb565b620003068683620002bb565b95508019841693508086168417925050509392505050565b6000819050919050565b6000819050919050565b6000620003536200034d62000347846200031e565b62000328565b6200031e565b9050919050565b6000819050919050565b6200036f8362000332565b620003876200037e826200035a565b848454620002c8565b825550505050565b600090565b6200039e6200038f565b620003ab81848462000364565b505050565b5b81811015620003d357620003c760008262000394565b600181019050620003b1565b5050565b601f8211156200042257620003ec8162000296565b620003f784620002ab565b8101602085101562000407578190505b6200041f6200041685620002ab565b830182620003b0565b50505b505050565b600082821c905092915050565b6000620004476000198460080262000427565b1980831691505092915050565b600062000462838362000434565b9150826002028217905092915050565b6200047d82620001f8565b67ffffffffffffffff81111562000499576200049862000203565b5b620004a5825462000261565b620004b2828285620003d7565b600060209050601f831160018114620004ea5760008415620004d5578287015190505b620004e1858262000454565b86555062000551565b601f198416620004fa8662000296565b60005b828110156200052457848901518255600182019150602085019450602081019050620004fd565b8683101562000544578489015162000540601f89168262000434565b8355505b6001600288020188555050505b505050505050565b600073ffffffffffffffffffffffffffffffffffffffff82169050919050565b6000620005868262000559565b9050919050565b620005988162000579565b82525050565b6000602082019050620005b560008301846200058d565b92915050565b61298f80620005cb6000396000f3fe608060405234801561001057600080fd5b50600436106101215760003560e01c8063715018a6116100ad578063b88d4fde11610071578063b88d4fde146102f4578063bb0c0d5e14610310578063c87b56dd14610340578063e985e9c514610370578063f2fde38b146103a057610121565b8063715018a61461027457806375794a3c1461027e5780638da5cb5b1461029c57806395d89b41146102ba578063a22cb465146102d857610121565b806323b872dd116100f457806323b872dd146101c057806342842e0e146101dc5780634a0706be146101f85780636352211e1461021457806370a082311461024457610121565b806301ffc9a71461012657806306fdde0314610156578063081812fc14610174578063095ea7b3146101a4575b600080fd5b610140600480360381019061013b9190611cb1565b6103bc565b60405161014d9190611cf9565b60405180910390f35b61015e61041d565b60405161016b9190611da4565b60405180910390f35b61018e60048036038101906101899190611dfc565b6104af565b60405161019b9190611e6a565b60405180910390f35b6101be60048036038101906101b99190611eb1565b6104cb565b005b6101da60048036038101906101d59190611ef1565b6104e1565b005b6101f660048036038101906101f19190611ef1565b6105e3565b005b610212600480360381019061020d9190612079565b610603565b005b61022e60048036038101906102299190611dfc565b6106e9565b60405161023b9190611e6a565b60405180910390f35b61025e60048036038101906102599190612134565b6106fb565b60405161026b9190612170565b60405180910390f35b61027c6107b5565b005b6102866107c9565b6040516102939190612170565b60405180910390f35b6102a46107cf565b6040516102b19190611e6a565b60405180910390f35b6102c26107f9565b6040516102cf9190611da4565b60405180910390f35b6102f260048036038101906102ed91906121b7565b61088b565b005b61030e60048036038101906103099190612298565b6108a1565b005b61032a60048036038101906103259190612134565b6108c6565b6040516103379190612170565b60405180910390f35b61035a60048036038101906103559190611dfc565b6108de565b6040516103679190611da4565b60405180910390f35b61038a6004803603810190610385919061231b565b6109f1565b6040516103979190611cf9565b60405180910390f35b6103ba60048036038101906103b59190612134565b610a85565b005b6000634906490660e01b7bffffffffffffffffffffffffffffffffffffffffffffffffffffffff1916827bffffffffffffffffffffffffffffffffffffffffffffffffffffffff19161480610416575061041582610b0b565b5b9050919050565b60606000805461042c9061238a565b80601f01602080910402602001604051908101604052809291908181526020018280546104589061238a565b80156104a55780601f1061047a576101008083540402835291602001916104a5565b820191906000526020600020905b81548152906001019060200180831161048857829003601f168201915b5050505050905090565b60006104ba82610bed565b506104c482610c75565b9050919050565b6104dd82826104d8610cb2565b610cba565b5050565b600073ffffffffffffffffffffffffffffffffffffffff168273ffffffffffffffffffffffffffffffffffffffff16036105535760006040517f64a0ae9200000000000000000000000000000000000000000000000000000000815260040161054a9190611e6a565b60405180910390fd5b60006105678383610562610cb2565b610ccc565b90508373ffffffffffffffffffffffffffffffffffffffff168173ffffffffffffffffffffffffffffffffffffffff16146105dd578382826040517f64283d7b0000000000000000000000000000000000000000000000000000000081526004016105d4939291906123bb565b60405180910390fd5b50505050565b6105fe838383604051806020016040528060008152506108a1565b505050565b61060b610d95565b60006008600081548092919061062090612421565b9190505590506106308582610e1c565b61063a8183610e3a565b6001600960008773ffffffffffffffffffffffffffffffffffffffff1673ffffffffffffffffffffffffffffffffffffffff168152602001908152602001600020600082825461068a9190612469565b92505081905550808573ffffffffffffffffffffffffffffffffffffffff167fe2406cfd356cfbe4e42d452bde96d27f48c423e5f02b5d78695893308399519d86866040516106da92919061249d565b60405180910390a35050505050565b60006106f482610bed565b9050919050565b60008073ffffffffffffffffffffffffffffffffffffffff168273ffffffffffffffffffffffffffffffffffffffff160361076e5760006040517f89c62b640000000000000000000000000000000000000000000000000000000081526004016107659190611e6a565b60405180910390fd5b600360008373ffffffffffffffffffffffffffffffffffffffff1673ffffffffffffffffffffffffffffffffffffffff168152602001908152602001600020549050919050565b6107bd610d95565b6107c76000610e96565b565b60085481565b6000600760009054906101000a900473ffffffffffffffffffffffffffffffffffffffff16905090565b6060600180546108089061238a565b80601f01602080910402602001604051908101604052809291908181526020018280546108349061238a565b80156108815780601f1061085657610100808354040283529160200191610881565b820191906000526020600020905b81548152906001019060200180831161086457829003601f168201915b5050505050905090565b61089d610896610cb2565b8383610f5c565b5050565b6108ac8484846104e1565b6108c06108b7610cb2565b858585856110cb565b50505050565b60096020528060005260406000206000915090505481565b60606108e982610bed565b50600060066000848152602001908152602001600020805461090a9061238a565b80601f01602080910402602001604051908101604052809291908181526020018280546109369061238a565b80156109835780601f1061095857610100808354040283529160200191610983565b820191906000526020600020905b81548152906001019060200180831161096657829003601f168201915b50505050509050600061099461127c565b905060008151036109a95781925050506109ec565b6000825111156109de5780826040516020016109c6929190612510565b604051602081830303815290604052925050506109ec565b6109e784611293565b925050505b919050565b6000600560008473ffffffffffffffffffffffffffffffffffffffff1673ffffffffffffffffffffffffffffffffffffffff16815260200190815260200160002060008373ffffffffffffffffffffffffffffffffffffffff1673ffffffffffffffffffffffffffffffffffffffff16815260200190815260200160002060009054906101000a900460ff16905092915050565b610a8d610d95565b600073ffffffffffffffffffffffffffffffffffffffff168173ffffffffffffffffffffffffffffffffffffffff1603610aff5760006040517f1e4fbdf7000000000000000000000000000000000000000000000000000000008152600401610af69190611e6a565b60405180910390fd5b610b0881610e96565b50565b60007f80ac58cd000000000000000000000000000000000000000000000000000000007bffffffffffffffffffffffffffffffffffffffffffffffffffffffff1916827bffffffffffffffffffffffffffffffffffffffffffffffffffffffff19161480610bd657507f5b5e139f000000000000000000000000000000000000000000000000000000007bffffffffffffffffffffffffffffffffffffffffffffffffffffffff1916827bffffffffffffffffffffffffffffffffffffffffffffffffffffffff1916145b80610be65750610be5826112fc565b5b9050919050565b600080610bf983611366565b9050600073ffffffffffffffffffffffffffffffffffffffff168173ffffffffffffffffffffffffffffffffffffffff1603610c6c57826040517f7e273289000000000000000000000000000000000000000000000000000000008152600401610c639190612170565b60405180910390fd5b80915050919050565b60006004600083815260200190815260200160002060009054906101000a900473ffffffffffffffffffffffffffffffffffffffff169050919050565b600033905090565b610cc783838360016113a3565b505050565b600080610cd884611366565b9050600073ffffffffffffffffffffffffffffffffffffffff168173ffffffffffffffffffffffffffffffffffffffff161480610d415750600073ffffffffffffffffffffffffffffffffffffffff168573ffffffffffffffffffffffffffffffffffffffff16145b610d80576040517f08c379a0000000000000000000000000000000000000000000000000000000008152600401610d7790612580565b60405180910390fd5b610d8b858585611568565b9150509392505050565b610d9d610cb2565b73ffffffffffffffffffffffffffffffffffffffff16610dbb6107cf565b73ffffffffffffffffffffffffffffffffffffffff1614610e1a57610dde610cb2565b6040517f118cdaa7000000000000000000000000000000000000000000000000000000008152600401610e119190611e6a565b60405180910390fd5b565b610e36828260405180602001604052806000815250611782565b5050565b80600660008481526020019081526020016000209081610e5a919061274c565b507ff8e1a15aba9398e019f0b49df1a4fde98ee17ae345cb5f6b5e2c27f5033e8ce782604051610e8a9190612170565b60405180910390a15050565b6000600760009054906101000a900473ffffffffffffffffffffffffffffffffffffffff16905081600760006101000a81548173ffffffffffffffffffffffffffffffffffffffff021916908373ffffffffffffffffffffffffffffffffffffffff1602179055508173ffffffffffffffffffffffffffffffffffffffff168173ffffffffffffffffffffffffffffffffffffffff167f8be0079c531659141344cd1fd0a4f28419497f9722a3daafe3b4186f6b6457e060405160405180910390a35050565b600073ffffffffffffffffffffffffffffffffffffffff168273ffffffffffffffffffffffffffffffffffffffff1603610fcd57816040517f5b08ba18000000000000000000000000000000000000000000000000000000008152600401610fc49190611e6a565b60405180910390fd5b80600560008573ffffffffffffffffffffffffffffffffffffffff1673ffffffffffffffffffffffffffffffffffffffff16815260200190815260200160002060008473ffffffffffffffffffffffffffffffffffffffff1673ffffffffffffffffffffffffffffffffffffffff16815260200190815260200160002060006101000a81548160ff0219169083151502179055508173ffffffffffffffffffffffffffffffffffffffff168373ffffffffffffffffffffffffffffffffffffffff167f17307eab39ab6107e8899845ad3d59bd9653f200f220920489ca2b5937696c31836040516110be9190611cf9565b60405180910390a3505050565b60008373ffffffffffffffffffffffffffffffffffffffff163b1115611275578273ffffffffffffffffffffffffffffffffffffffff1663150b7a02868685856040518563ffffffff1660e01b815260040161112a9493929190612873565b6020604051808303816000875af192505050801561116657506040513d601f19601f8201168201806040525081019061116391906128d4565b60015b6111ea573d8060008114611196576040519150601f19603f3d011682016040523d82523d6000602084013e61119b565b606091505b5060008151036111e257836040517f64a0ae920000000000000000000000000000000000000000000000000000000081526004016111d99190611e6a565b60405180910390fd5b805181602001fd5b63150b7a0260e01b7bffffffffffffffffffffffffffffffffffffffffffffffffffffffff1916817bffffffffffffffffffffffffffffffffffffffffffffffffffffffff19161461127357836040517f64a0ae9200000000000000000000000000000000000000000000000000000000815260040161126a9190611e6a565b60405180910390fd5b505b5050505050565b606060405180602001604052806000815250905090565b606061129e82610bed565b5060006112a961127c565b905060008151116112c957604051806020016040528060008152506112f4565b806112d3846117a6565b6040516020016112e4929190612510565b6040516020818303038152906040525b915050919050565b60007f01ffc9a7000000000000000000000000000000000000000000000000000000007bffffffffffffffffffffffffffffffffffffffffffffffffffffffff1916827bffffffffffffffffffffffffffffffffffffffffffffffffffffffff1916149050919050565b60006002600083815260200190815260200160002060009054906101000a900473ffffffffffffffffffffffffffffffffffffffff169050919050565b80806113dc5750600073ffffffffffffffffffffffffffffffffffffffff168273ffffffffffffffffffffffffffffffffffffffff1614155b156115105760006113ec84610bed565b9050600073ffffffffffffffffffffffffffffffffffffffff168373ffffffffffffffffffffffffffffffffffffffff161415801561145757508273ffffffffffffffffffffffffffffffffffffffff168173ffffffffffffffffffffffffffffffffffffffff1614155b801561146a575061146881846109f1565b155b156114ac57826040517fa9fbf51f0000000000000000000000000000000000000000000000000000000081526004016114a39190611e6a565b60405180910390fd5b811561150e57838573ffffffffffffffffffffffffffffffffffffffff168273ffffffffffffffffffffffffffffffffffffffff167f8c5be1e5ebec7d5bd14f71427d1e84f3dd0314c0f7b2291e5b200ac8c7c3b92560405160405180910390a45b505b836004600085815260200190815260200160002060006101000a81548173ffffffffffffffffffffffffffffffffffffffff021916908373ffffffffffffffffffffffffffffffffffffffff16021790555050505050565b60008061157484611366565b9050600073ffffffffffffffffffffffffffffffffffffffff168373ffffffffffffffffffffffffffffffffffffffff16146115b6576115b5818486611874565b5b600073ffffffffffffffffffffffffffffffffffffffff168173ffffffffffffffffffffffffffffffffffffffff1614611647576115f86000856000806113a3565b6001600360008373ffffffffffffffffffffffffffffffffffffffff1673ffffffffffffffffffffffffffffffffffffffff168152602001908152602001600020600082825403925050819055505b600073ffffffffffffffffffffffffffffffffffffffff168573ffffffffffffffffffffffffffffffffffffffff16146116ca576001600360008773ffffffffffffffffffffffffffffffffffffffff1673ffffffffffffffffffffffffffffffffffffffff168152602001908152602001600020600082825401925050819055505b846002600086815260200190815260200160002060006101000a81548173ffffffffffffffffffffffffffffffffffffffff021916908373ffffffffffffffffffffffffffffffffffffffff160217905550838573ffffffffffffffffffffffffffffffffffffffff168273ffffffffffffffffffffffffffffffffffffffff167fddf252ad1be2c89b69c2b068fc378daa952ba7f163c4a11628f55a4df523b3ef60405160405180910390a4809150509392505050565b61178c8383611938565b6117a1611797610cb2565b60008585856110cb565b505050565b6060600060016117b584611a31565b01905060008167ffffffffffffffff8111156117d4576117d3611f4e565b5b6040519080825280601f01601f1916602001820160405280156118065781602001600182028036833780820191505090505b509050600082602001820190505b600115611869578080600190039150507f3031323334353637383961626364656600000000000000000000000000000000600a86061a8153600a858161185d5761185c612901565b5b04945060008503611814575b819350505050919050565b61187f838383611b84565b61193357600073ffffffffffffffffffffffffffffffffffffffff168373ffffffffffffffffffffffffffffffffffffffff16036118f457806040517f7e2732890000000000000000000000000000000000000000000000000000000081526004016118eb9190612170565b60405180910390fd5b81816040517f177e802f00000000000000000000000000000000000000000000000000000000815260040161192a929190612930565b60405180910390fd5b505050565b600073ffffffffffffffffffffffffffffffffffffffff168273ffffffffffffffffffffffffffffffffffffffff16036119aa5760006040517f64a0ae920000000000000000000000000000000000000000000000000000000081526004016119a19190611e6a565b60405180910390fd5b60006119b883836000610ccc565b9050600073ffffffffffffffffffffffffffffffffffffffff168173ffffffffffffffffffffffffffffffffffffffff1614611a2c5760006040517f73c6ac6e000000000000000000000000000000000000000000000000000000008152600401611a239190611e6a565b60405180910390fd5b505050565b600080600090507a184f03e93ff9f4daa797ed6e38ed64bf6a1f0100000000000000008310611a8f577a184f03e93ff9f4daa797ed6e38ed64bf6a1f0100000000000000008381611a8557611a84612901565b5b0492506040810190505b6d04ee2d6d415b85acef81000000008310611acc576d04ee2d6d415b85acef81000000008381611ac257611ac1612901565b5b0492506020810190505b662386f26fc100008310611afb57662386f26fc100008381611af157611af0612901565b5b0492506010810190505b6305f5e1008310611b24576305f5e1008381611b1a57611b19612901565b5b0492506008810190505b6127108310611b49576127108381611b3f57611b3e612901565b5b0492506004810190505b60648310611b6c5760648381611b6257611b61612901565b5b0492506002810190505b600a8310611b7b576001810190505b80915050919050565b60008073ffffffffffffffffffffffffffffffffffffffff168373ffffffffffffffffffffffffffffffffffffffff1614158015611c3c57508273ffffffffffffffffffffffffffffffffffffffff168473ffffffffffffffffffffffffffffffffffffffff161480611bfd5750611bfc84846109f1565b5b80611c3b57508273ffffffffffffffffffffffffffffffffffffffff16611c2383610c75565b73ffffffffffffffffffffffffffffffffffffffff16145b5b90509392505050565b6000604051905090565b600080fd5b600080fd5b60007fffffffff0000000000000000000000000000000000000000000000000000000082169050919050565b611c8e81611c59565b8114611c9957600080fd5b50565b600081359050611cab81611c85565b92915050565b600060208284031215611cc757611cc6611c4f565b5b6000611cd584828501611c9c565b91505092915050565b60008115159050919050565b611cf381611cde565b82525050565b6000602082019050611d0e6000830184611cea565b92915050565b600081519050919050565b600082825260208201905092915050565b60005b83811015611d4e578082015181840152602081019050611d33565b60008484015250505050565b6000601f19601f8301169050919050565b6000611d7682611d14565b611d808185611d1f565b9350611d90818560208601611d30565b611d9981611d5a565b840191505092915050565b60006020820190508181036000830152611dbe8184611d6b565b905092915050565b6000819050919050565b611dd981611dc6565b8114611de457600080fd5b50565b600081359050611df681611dd0565b92915050565b600060208284031215611e1257611e11611c4f565b5b6000611e2084828501611de7565b91505092915050565b600073ffffffffffffffffffffffffffffffffffffffff82169050919050565b6000611e5482611e29565b9050919050565b611e6481611e49565b82525050565b6000602082019050611e7f6000830184611e5b565b92915050565b611e8e81611e49565b8114611e9957600080fd5b50565b600081359050611eab81611e85565b92915050565b60008060408385031215611ec857611ec7611c4f565b5b6000611ed685828601611e9c565b9250506020611ee785828601611de7565b9150509250929050565b600080600060608486031215611f0a57611f09611c4f565b5b6000611f1886828701611e9c565b9350506020611f2986828701611e9c565b9250506040611f3a86828701611de7565b9150509250925092565b600080fd5b600080fd5b7f4e487b7100000000000000000000000000000000000000000000000000000000600052604160045260246000fd5b611f8682611d5a565b810181811067ffffffffffffffff82111715611fa557611fa4611f4e565b5b80604052505050565b6000611fb8611c45565b9050611fc48282611f7d565b919050565b600067ffffffffffffffff821115611fe457611fe3611f4e565b5b611fed82611d5a565b9050602081019050919050565b82818337600083830152505050565b600061201c61201784611fc9565b611fae565b90508281526020810184848401111561203857612037611f49565b5b612043848285611ffa565b509392505050565b600082601f8301126120605761205f611f44565b5b8135612070848260208601612009565b91505092915050565b6000806000806080858703121561209357612092611c4f565b5b60006120a187828801611e9c565b945050602085013567ffffffffffffffff8111156120c2576120c1611c54565b5b6120ce8782880161204b565b935050604085013567ffffffffffffffff8111156120ef576120ee611c54565b5b6120fb8782880161204b565b925050606085013567ffffffffffffffff81111561211c5761211b611c54565b5b6121288782880161204b565b91505092959194509250565b60006020828403121561214a57612149611c4f565b5b600061215884828501611e9c565b91505092915050565b61216a81611dc6565b82525050565b60006020820190506121856000830184612161565b92915050565b61219481611cde565b811461219f57600080fd5b50565b6000813590506121b18161218b565b92915050565b600080604083850312156121ce576121cd611c4f565b5b60006121dc85828601611e9c565b92505060206121ed858286016121a2565b9150509250929050565b600067ffffffffffffffff82111561221257612211611f4e565b5b61221b82611d5a565b9050602081019050919050565b600061223b612236846121f7565b611fae565b90508281526020810184848401111561225757612256611f49565b5b612262848285611ffa565b509392505050565b600082601f83011261227f5761227e611f44565b5b813561228f848260208601612228565b91505092915050565b600080600080608085870312156122b2576122b1611c4f565b5b60006122c087828801611e9c565b94505060206122d187828801611e9c565b93505060406122e287828801611de7565b925050606085013567ffffffffffffffff81111561230357612302611c54565b5b61230f8782880161226a565b91505092959194509250565b6000806040838503121561233257612331611c4f565b5b600061234085828601611e9c565b925050602061235185828601611e9c565b9150509250929050565b7f4e487b7100000000000000000000000000000000000000000000000000000000600052602260045260246000fd5b600060028204905060018216806123a257607f821691505b6020821081036123b5576123b461235b565b5b50919050565b60006060820190506123d06000830186611e5b565b6123dd6020830185612161565b6123ea6040830184611e5b565b949350505050565b7f4e487b7100000000000000000000000000000000000000000000000000000000600052601160045260246000fd5b600061242c82611dc6565b91507fffffffffffffffffffffffffffffffffffffffffffffffffffffffffffffffff820361245e5761245d6123f2565b5b600182019050919050565b600061247482611dc6565b915061247f83611dc6565b9250828201905080821115612497576124966123f2565b5b92915050565b600060408201905081810360008301526124b78185611d6b565b905081810360208301526124cb8184611d6b565b90509392505050565b600081905092915050565b60006124ea82611d14565b6124f481856124d4565b9350612504818560208601611d30565b80840191505092915050565b600061251c82856124df565b915061252882846124df565b91508190509392505050565b7f536f756c626f756e643a206e6f6e2d7472616e7366657261626c650000000000600082015250565b600061256a601b83611d1f565b915061257582612534565b602082019050919050565b600060208201905081810360008301526125998161255d565b9050919050565b60008190508160005260206000209050919050565b60006020601f8301049050919050565b600082821b905092915050565b6000600883026126027fffffffffffffffffffffffffffffffffffffffffffffffffffffffffffffffff826125c5565b61260c86836125c5565b95508019841693508086168417925050509392505050565b6000819050919050565b600061264961264461263f84611dc6565b612624565b611dc6565b9050919050565b6000819050919050565b6126638361262e565b61267761266f82612650565b8484546125d2565b825550505050565b600090565b61268c61267f565b61269781848461265a565b505050565b5b818110156126bb576126b0600082612684565b60018101905061269d565b5050565b601f821115612700576126d1816125a0565b6126da846125b5565b810160208510156126e9578190505b6126fd6126f5856125b5565b83018261269c565b50505b505050565b600082821c905092915050565b600061272360001984600802612705565b1980831691505092915050565b600061273c8383612712565b9150826002028217905092915050565b61275582611d14565b67ffffffffffffffff81111561276e5761276d611f4e565b5b612778825461238a565b6127838282856126bf565b600060209050601f8311600181146127b657600084156127a4578287015190505b6127ae8582612730565b865550612816565b601f1984166127c4866125a0565b60005b828110156127ec578489015182556001820191506020850194506020810190506127c7565b868310156128095784890151612805601f891682612712565b8355505b6001600288020188555050505b505050505050565b600081519050919050565b600082825260208201905092915050565b60006128458261281e565b61284f8185612829565b935061285f818560208601611d30565b61286881611d5a565b840191505092915050565b60006080820190506128886000830187611e5b565b6128956020830186611e5b565b6128a26040830185612161565b81810360608301526128b4818461283a565b905095945050505050565b6000815190506128ce81611c85565b92915050565b6000602082840312156128ea576128e9611c4f565b5b60006128f8848285016128bf565b91505092915050565b7f4e487b7100000000000000000000000000000000000000000000000000000000600052601260045260246000fd5b60006040820190506129456000830185611e5b565b6129526020830184612161565b939250505056fea26469706673582212204c04adef88fa1d804a5a4f9dffd09401cdd1c6246a7049b23314a1afd969c61664736f6c63430008140033",
  "linkReferences": {},
  "deployedLinkReferences": {}
}