{
  "_format": "hh-sol-artifact-1",
  "contractName": "ContentNFT",
  "sourceName": "contracts/ContentNFT.sol",
  "abi": [
    {
      "inputs": [],
      "stateMutability": "nonpayable",
      "type": "constructor"
    },
    {
      "inputs": [],
      "name": "ERC721EnumerableForbiddenBatchMint",
      "type": "error"
    },
    {
      "inputs": [
        {
          "internalType": "address",
          "name": "sender",
          "type": "address"
        },
        {
          "internalType": "uint256",
          "name": "tokenId",
          "type": "uint256"
        },
        {
          "internalType": "address",
          "name": "owner",
          "type": "address"
        }
      ],
      "name": "ERC721IncorrectOwner",
      "type": "error"
    },
    {
      "inputs": [
        {
          "internalType": "address",
          "name": "operator",
          "type": "address"
        },
        {
          "internalType": "uint256",
          "name": "tokenId",
          "type": "uint256"
        }
      ],
      "name": "ERC721InsufficientApproval",
      "type": "error"
    },
    {
      "inputs": [
        {
          "internalType": "address",
          "name": "approver",
          "type": "address"
        }
      ],
      "name": "ERC721InvalidApprover",
      "type": "error"
    },
    {
      "inputs": [
        {
          "internalType": "address",
          "name": "operator",
          "type": "address"
        }
      ],
      "name": "ERC721InvalidOperator",
      "type": "error"
    },
    {
      "inputs": [
        {
          "internalType": "address",
          "name": "owner",
          "type": "address"
        }
      ],
      "name": "ERC721InvalidOwner",
      "type": "error"
    },
    {
      "inputs": [
        {
          "internalType": "address",
          "name": "receiver",
          "type": "address"
        }
      ],
      "name": "ERC721InvalidReceiver",
      "type": "error"
    },
    {
      "inputs": [
        {
          "internalType": "address",
          "name": "sender",
          "type": "address"
        }
      ],
      "name": "ERC721InvalidSender",
      "type": "error"
    },
    {
      "inputs": [
        {
          "internalType": "uint256",
          "name": "tokenId",
          "type": "uint256"
        }
      ],
      "name": "ERC721NonexistentToken",
      "type": "error"
    },
    {
      "inputs": [
        {
          "internalType": "address",
          "name": "owner",
          "type": "address"
        },
        {
          "internalType": "uint256",
          "name": "index",
          "type": "uint256"
        }
      ],
      "name": "ERC721OutOfBoundsIndex",
      "type": "error"
    },
    {
      "inputs": [
        {
          "internalType": "address",
          "name": "owner",
          "type": "address"
        }
      ],
      "name": "OwnableInvalidOwner",
      "type": "error"
    },
    {
      "inputs": [
        {
          "internalType": "address",
          "name": "account",
          "type": "address"
        }
      ],
      "name": "OwnableUnauthorizedAccount",
      "type": "error"
    },
    {
      "anonymous": false,
      "inputs": [
        {
          "indexed": true,
          "internalType": "address",
          "name": "owner",
          "type": "address"
        },
        {
          "indexed": true,
          "internalType": "address",
          "name": "approved",
          "type": "address"
        },
        {
          "indexed": true,
          "internalType": "uint256",
          "name": "tokenId",
          "type": "uint256"
        }
      ],
      "name": "Approval",
      "type": "event"
    },
    {
      "anonymous": false,
      "inputs": [
        {
          "indexed": true,
          "internalType": "address",
          "name": "owner",
          "type": "address"
        },
        {
          "indexed": true,
          "internalType": "address",
          "name": "operator",
          "type": "address"
        },
        {
          "indexed": false,
          "internalType": "bool",
          "name": "approved",
          "type": "bool"
        }
      ],
      "name": "ApprovalForAll",
      "type": "event"
    },
    {
      "anonymous": false,
      "inputs": [
        {
          "indexed": false,
          "internalType": "uint256",
          "name": "_fromTokenId",
          "type": "uint256"
        },
        {
          "indexed": false,
          "internalType": "uint256",
          "name": "_toTokenId",
          "type": "uint256"
        }
      ],
      "name": "BatchMetadataUpdate",
      "type": "event"
    },
    {
      "anonymous": false,
      "inputs": [
        {
          "indexed": false,
          "internalType": "uint256",
          "name": "_tokenId",
          "type": "uint256"
        }
      ],
      "name": "MetadataUpdate",
      "type": "event"
    },
    {
      "anonymous": false,
      "inputs": [
        {
          "indexed": true,
          "internalType": "address",
          "name": "to",
          "type": "address"
        },
        {
          "indexed": true,
          "internalType": "uint256",
          "name": "tokenId",
          "type": "uint256"
        },
        {
          "indexed": false,
          "internalType": "string",
          "name": "ipfsHash",
          "type": "string"
        }
      ],
      "name": "Minted",
      "type": "event"
    },
    {
      "anonymous": false,
      "inputs": [
        {
          "indexed": true,
          "internalType": "address",
          "name": "previousOwner",
          "type": "address"
        },
        {
          "indexed": true,
          "internalType": "address",
          "name": "newOwner",
          "type": "address"
        }
      ],
      "name": "OwnershipTransferred",
      "type": "event"
    },
    {
      "anonymous": false,
      "inputs": [
        {
          "indexed": true,
          "internalType": "address",
          "name": "from",
          "type": "address"
        },
        {
          "indexed": true,
          "internalType": "address",
          "name": "to",
          "type": "address"
        },
        {
          "indexed": true,
          "internalType": "uint256",
          "name": "tokenId",
          "type": "uint256"
        }
      ],
      "name": "Transfer",
      "type": "event"
    },
    {
      "inputs": [
        {
          "internalType": "address",
          "name": "to",
          "type": "address"
        },
        {
          "internalType": "uint256",
          "name": "tokenId",
          "type": "uint256"
        }
      ],
      "name": "approve",
      "outputs": [],
      "stateMutability": "nonpayable",
      "type": "function"
    },
    {
      "inputs": [
        {
          "internalType": "address",
          "name": "owner",
          "type": "address"
        }
      ],
      "name": "balanceOf",
      "outputs": [
        {
          "internalType": "uint256",
          "name": "",
          "type": "uint256"
        }
      ],
      "stateMutability": "view",
      "type": "function"
    },
    {
      "inputs": [
        {
          "internalType": "uint256",
          "name": "tokenId",
          "type": "uint256"
        }
      ],
      "name": "getApproved",
      "outputs": [
        {
          "internalType": "address",
          "name": "",
          "type": "address"
        }
      ],
      "stateMutability": "view",
      "type": "function"
    },
    {
      "inputs": [
        {
          "internalType": "address",
          "name": "owner",
          "type": "address"
        },
        {
          "internalType": "address",
          "name": "operator",
          "type": "address"
        }
      ],
      "name": "isApprovedForAll",
      "outputs": [
        {
          "internalType": "bool",
          "name": "",
          "type": "bool"
        }
      ],
      "stateMutability": "view",
      "type": "function"
    },
    {
      "inputs": [
        {
          "internalType": "address",
          "name": "to",
          "type": "address"
        },
        {
          "internalType": "string",
          "name": "ipfsHash",
          "type": "string"
        }
      ],
      "name": "mint",
      "outputs": [],
      "stateMutability": "nonpayable",
      "type": "function"
    },
    {
      "inputs": [],
      "name": "name",
      "outputs": [
        {
          "internalType": "string",
          "name": "",
          "type": "string"
        }
      ],
      "stateMutability": "view",
      "type": "function"
    },
    {
      "inputs": [],
      "name": "nextTokenId",
      "outputs": [
        {
          "internalType": "uint256",
          "name": "",
          "type": "uint256"
        }
      ],
      "stateMutability": "view",
      "type": "function"
    },
    {
      "inputs": [],
      "name": "owner",
      "outputs": [
        {
          "internalType": "address",
          "name": "",
          "type": "address"
        }
      ],
      "stateMutability": "view",
      "type": "function"
    },
    {
      "inputs": [
        {
          "internalType": "uint256",
          "name": "tokenId",
          "type": "uint256"
        }
      ],
      "name": "ownerOf",
      "outputs": [
        {
          "internalType": "address",
          "name": "",
          "type": "address"
        }
      ],
      "stateMutability": "view",
      "type": "function"
    },
    {
      "inputs": [],
      "name": "renounceOwnership",
      "outputs": [],
      "stateMutability": "nonpayable",
      "type": "function"
    },
    {
      "inputs": [
        {
          "internalType": "address",
          "name": "from",
          "type": "address"
        },
        {
          "internalType": "address",
          "name": "to",
          "type": "address"
        },
        {
          "internalType": "uint256",
          "name": "tokenId",
          "type": "uint256"
        }
      ],
      "name": "safeTransferFrom",
      "outputs": [],
      "stateMutability": "nonpayable",
      "type": "function"
    },
    {
      "inputs": [
        {
          "internalType": "address",
          "name": "from",
          "type": "address"
        },
        {
          "internalType": "address",
          "name": "to",
          "type": "address"
        },
        {
          "internalType": "uint256",
          "name": "tokenId",
          "type": "uint256"
        },
        {
          "internalType": "bytes",
          "name": "data",
          "type": "bytes"
        }
      ],
      "name": "safeTransferFrom",
      "outputs": [],
      "stateMutability": "nonpayable",
      "type": "function"
    },
    {
      "inputs": [
        {
          "internalType": "address",
          "name": "operator",
          "type": "address"
        },
        {
          "internalType": "bool",
          "name": "approved",
          "type": "bool"
        }
      ],
      "name": "setApprovalForAll",
      "outputs": [],
      "stateMutability": "nonpayable",
      "type": "function"
    },
    {
      "inputs": [
        {
          "internalType": "bytes4",
          "name": "interfaceId",
          "type": "bytes4"
        }
      ],
      "name": "supportsInterface",
      "outputs": [
        {
          "internalType": "bool",
          "name": "",
          "type": "bool"
        }
      ],
      "stateMutability": "view",
      "type": "function"
    },
    {
      "inputs": [],
      "name": "symbol",
      "outputs": [
        {
          "internalType": "string",
          "name": "",
          "type": "string"
        }
      ],
      "stateMutability": "view",
      "type": "function"
    },
    {
      "inputs": [
        {
          "internalType": "uint256",
          "name": "index",
          "type": "uint256"
        }
      ],
      "name": "tokenByIndex",
      "outputs": [
        {
          "internalType": "uint256",
          "name": "",
          "type": "uint256"
        }
      ],
      "stateMutability": "view",
      "type": "function"
    },
    {
      "inputs": [
        {
          "internalType": "address",
          "name": "owner",
          "type": "address"
        },
        {
          "internalType": "uint256",
          "name": "index",
          "type": "uint256"
        }
      ],
      "name": "tokenOfOwnerByIndex",
      "outputs": [
        {
          "internalType": "uint256",
          "name": "",
          "type": "uint256"
        }
      ],
      "stateMutability": "view",
      "type": "function"
    },
    {
      "inputs": [
        {
          "internalType": "uint256",
          "name": "tokenId",
          "type": "uint256"
        }
      ],
      "name": "tokenURI",
      "outputs": [
        {
          "internalType": "string",
          "name": "",
          "type": "string"
        }
      ],
      "stateMutability": "view",
      "type": "function"
    },
    {
      "inputs": [],
      "name": "totalSupply",
      "outputs": [
        {
          "internalType": "uint256",
          "name": "",
          "type": "uint256"
        }
      ],
      "stateMutability": "view",
      "type": "function"
    },
    {
      "inputs": [
        {
          "internalType": "address",
          "name": "from",
          "type": "address"
        },
        {
          "internalType": "address",
          "name": "to",
          "type": "address"
        },
        {
          "internalType": "uint256",
          "name": "tokenId",
          "type": "uint256"
        }
      ],
      "name": "transferFrom",
      "outputs": [],
      "stateMutability": "nonpayable",
      "type": "function"
    },
    {
      "inputs": [
        {
          "internalType": "address",
          "name": "newOwner",
          "type": "address"
        }
      ],
      "name": "transferOwnership",
      "outputs": [],
      "stateMutability": "nonpayable",
      "type": "function"
    }
  ],
  "bytecode": "0x60806040523480156200001157600080fd5b50336040518060400160405280601481526020017f536f6c766572736520436f6e74656e74204e46540000000000000000000000008152506040518060400160405280600581526020017f53564e4654000000000000000000000000000000000000000000000000000000815250816000908162000090919062000472565b508060019081620000a2919062000472565b505050600073ffffffffffffffffffffffffffffffffffffffff168173ffffffffffffffffffffffffffffffffffffffff16036200011a5760006040517f1e4fbdf70000000000000000000000000000000000000000000000000000000081526004016200011191906200059e565b60405180910390fd5b6200012b816200013260201b60201c565b50620005bb565b6000600b60009054906101000a900473ffffffffffffffffffffffffffffffffffffffff16905081600b60006101000a81548173ffffffffffffffffffffffffffffffffffffffff021916908373ffffffffffffffffffffffffffffffffffffffff1602179055508173ffffffffffffffffffffffffffffffffffffffff168173ffffffffffffffffffffffffffffffffffffffff167f8be0079c531659141344cd1fd0a4f28419497f9722a3daafe3b4186f6b6457e060405160405180910390a35050565b600081519050919050565b7f4e487b7100000000000000000000000000000000000000000000000000000000600052604160045260246000fd5b7f4e487b7100000000000000000000000000000000000000000000000000000000600052602260045260246000fd5b600060028204905060018216806200027a57607f821691505b60208210810362000290576200028f62000232565b5b50919050565b60008190508160005260206000209050919050565b60006020601f8301049050919050565b600082821b905092915050565b600060088302620002fa7fffffffffffffffffffffffffffffffffffffffffffffffffffffffffffffffff82620002bb565b620003068683620002bb565b95508019841693508086168417925050509392505050565b6000819050919050565b6000819050919050565b6000620003536200034d62000347846200031e565b62000328565b6200031e565b9050919050565b6000819050919050565b6200036f8362000332565b620003876200037e826200035a565b848454620002c8565b825550505050565b600090565b6200039e6200038f565b620003ab81848462000364565b505050565b5b81811015620003d357620003c760008262000394565b600181019050620003b1565b5050565b601f8211156200042257620003ec8162000296565b620003f784620002ab565b8101602085101562000407578190505b6200041f6200041685620002ab565b830182620003b0565b50505b505050565b600082821c905092915050565b6000620004476000198460080262000427565b1980831691505092915050565b600062000462838362000434565b9150826002028217905092915050565b6200047d82620001f8565b67ffffffffffffffff81111562000499576200049862000203565b5b620004a5825462000261565b620004b2828285620003d7565b600060209050601f831160018114620004ea5760008415620004d5578287015190505b620004e1858262000454565b86555062000551565b601f198416620004fa8662000296565b60005b828110156200052457848901518255600182019150602085019450602081019050620004fd565b8683101562000544578489015162000540601f89168262000434565b8355505b6001600288020188555050505b505050505050565b600073ffffffffffffffffffffffffffffffffffffffff82169050919050565b6000620005868262000559565b9050919050565b620005988162000579565b82525050565b6000602082019050620005b560008301846200058d565b92915050565b612da080620005cb6000396000f3fe608060405234801561001057600080fd5b50600436106101375760003560e01c806370a08231116100b8578063a22cb4651161007c578063a22cb46514610350578063b88d4fde1461036c578063c87b56dd14610388578063d0def521146103b8578063e985e9c5146103d4578063f2fde38b1461040457610137565b806370a08231146102bc578063715018a6146102ec57806375794a3c146102f65780638da5cb5b1461031457806395d89b411461033257610137565b806323b872dd116100ff57806323b872dd146101f45780632f745c591461021057806342842e0e146102405780634f6ccce71461025c5780636352211e1461028c57610137565b806301ffc9a71461013c57806306fdde031461016c578063081812fc1461018a578063095ea7b3146101ba57806318160ddd146101d6575b600080fd5b61015660048036038101906101519190612166565b610420565b60405161016391906121ae565b60405180910390f35b610174610432565b6040516101819190612259565b60405180910390f35b6101a4600480360381019061019f91906122b1565b6104c4565b6040516101b1919061231f565b60405180910390f35b6101d460048036038101906101cf9190612366565b6104e0565b005b6101de6104f6565b6040516101eb91906123b5565b60405180910390f35b61020e600480360381019061020991906123d0565b610503565b005b61022a60048036038101906102259190612366565b610605565b60405161023791906123b5565b60405180910390f35b61025a600480360381019061025591906123d0565b6106ae565b005b610276600480360381019061027191906122b1565b6106ce565b60405161028391906123b5565b60405180910390f35b6102a660048036038101906102a191906122b1565b610744565b6040516102b3919061231f565b60405180910390f35b6102d660048036038101906102d19190612423565b610756565b6040516102e391906123b5565b60405180910390f35b6102f4610810565b005b6102fe610824565b60405161030b91906123b5565b60405180910390f35b61031c61082a565b604051610329919061231f565b60405180910390f35b61033a610854565b6040516103479190612259565b60405180910390f35b61036a6004803603810190610365919061247c565b6108e6565b005b610386600480360381019061038191906125f1565b6108fc565b005b6103a2600480360381019061039d91906122b1565b610921565b6040516103af9190612259565b60405180910390f35b6103d260048036038101906103cd9190612715565b610933565b005b6103ee60048036038101906103e99190612771565b6109be565b6040516103fb91906121ae565b60405180910390f35b61041e60048036038101906104199190612423565b610a52565b005b600061042b82610ad8565b9050919050565b606060008054610441906127e0565b80601f016020809104026020016040519081016040528092919081815260200182805461046d906127e0565b80156104ba5780601f1061048f576101008083540402835291602001916104ba565b820191906000526020600020905b81548152906001019060200180831161049d57829003601f168201915b5050505050905090565b60006104cf82610b39565b506104d982610bc1565b9050919050565b6104f282826104ed610bfe565b610c06565b5050565b6000600880549050905090565b600073ffffffffffffffffffffffffffffffffffffffff168273ffffffffffffffffffffffffffffffffffffffff16036105755760006040517f64a0ae9200000000000000000000000000000000000000000000000000000000815260040161056c919061231f565b60405180910390fd5b60006105898383610584610bfe565b610c18565b90508373ffffffffffffffffffffffffffffffffffffffff168173ffffffffffffffffffffffffffffffffffffffff16146105ff578382826040517f64283d7b0000000000000000000000000000000000000000000000000000000081526004016105f693929190612811565b60405180910390fd5b50505050565b600061061083610756565b82106106555782826040517fa57d13dc00000000000000000000000000000000000000000000000000000000815260040161064c929190612848565b60405180910390fd5b600660008473ffffffffffffffffffffffffffffffffffffffff1673ffffffffffffffffffffffffffffffffffffffff168152602001908152602001600020600083815260200190815260200160002054905092915050565b6106c9838383604051806020016040528060008152506108fc565b505050565b60006106d86104f6565b821061071e576000826040517fa57d13dc000000000000000000000000000000000000000000000000000000008152600401610715929190612848565b60405180910390fd5b6008828154811061073257610731612871565b5b90600052602060002001549050919050565b600061074f82610b39565b9050919050565b60008073ffffffffffffffffffffffffffffffffffffffff168273ffffffffffffffffffffffffffffffffffffffff16036107c95760006040517f89c62b640000000000000000000000000000000000000000000000000000000081526004016107c0919061231f565b60405180910390fd5b600360008373ffffffffffffffffffffffffffffffffffffffff1673ffffffffffffffffffffffffffffffffffffffff168152602001908152602001600020549050919050565b610818610c2e565b6108226000610cb5565b565b600c5481565b6000600b60009054906101000a900473ffffffffffffffffffffffffffffffffffffffff16905090565b606060018054610863906127e0565b80601f016020809104026020016040519081016040528092919081815260200182805461088f906127e0565b80156108dc5780601f106108b1576101008083540402835291602001916108dc565b820191906000526020600020905b8154815290600101906020018083116108bf57829003601f168201915b5050505050905090565b6108f86108f1610bfe565b8383610d7b565b5050565b610907848484610503565b61091b610912610bfe565b85858585610eea565b50505050565b606061092c8261109b565b9050919050565b61093b610c2e565b6000600c6000815480929190610950906128cf565b91905055905061096083826111ae565b61096a81836111cc565b808373ffffffffffffffffffffffffffffffffffffffff167fe7cd4ce7f2a465edc730269a1305e8a48bad821e8fb7e152ec413829c01a53c4846040516109b19190612259565b60405180910390a3505050565b6000600560008473ffffffffffffffffffffffffffffffffffffffff1673ffffffffffffffffffffffffffffffffffffffff16815260200190815260200160002060008373ffffffffffffffffffffffffffffffffffffffff1673ffffffffffffffffffffffffffffffffffffffff16815260200190815260200160002060009054906101000a900460ff16905092915050565b610a5a610c2e565b600073ffffffffffffffffffffffffffffffffffffffff168173ffffffffffffffffffffffffffffffffffffffff1603610acc5760006040517f1e4fbdf7000000000000000000000000000000000000000000000000000000008152600401610ac3919061231f565b60405180910390fd5b610ad581610cb5565b50565b6000634906490660e01b7bffffffffffffffffffffffffffffffffffffffffffffffffffffffff1916827bffffffffffffffffffffffffffffffffffffffffffffffffffffffff19161480610b325750610b3182611228565b5b9050919050565b600080610b45836112a2565b9050600073ffffffffffffffffffffffffffffffffffffffff168173ffffffffffffffffffffffffffffffffffffffff1603610bb857826040517f7e273289000000000000000000000000000000000000000000000000000000008152600401610baf91906123b5565b60405180910390fd5b80915050919050565b60006004600083815260200190815260200160002060009054906101000a900473ffffffffffffffffffffffffffffffffffffffff169050919050565b600033905090565b610c1383838360016112df565b505050565b6000610c258484846114a4565b90509392505050565b610c36610bfe565b73ffffffffffffffffffffffffffffffffffffffff16610c5461082a565b73ffffffffffffffffffffffffffffffffffffffff1614610cb357610c77610bfe565b6040517f118cdaa7000000000000000000000000000000000000000000000000000000008152600401610caa919061231f565b60405180910390fd5b565b6000600b60009054906101000a900473ffffffffffffffffffffffffffffffffffffffff16905081600b60006101000a81548173ffffffffffffffffffffffffffffffffffffffff021916908373ffffffffffffffffffffffffffffffffffffffff1602179055508173ffffffffffffffffffffffffffffffffffffffff168173ffffffffffffffffffffffffffffffffffffffff167f8be0079c531659141344cd1fd0a4f28419497f9722a3daafe3b4186f6b6457e060405160405180910390a35050565b600073ffffffffffffffffffffffffffffffffffffffff168273ffffffffffffffffffffffffffffffffffffffff1603610dec57816040517f5b08ba18000000000000000000000000000000000000000000000000000000008152600401610de3919061231f565b60405180910390fd5b80600560008573ffffffffffffffffffffffffffffffffffffffff1673ffffffffffffffffffffffffffffffffffffffff16815260200190815260200160002060008473ffffffffffffffffffffffffffffffffffffffff1673ffffffffffffffffffffffffffffffffffffffff16815260200190815260200160002060006101000a81548160ff0219169083151502179055508173ffffffffffffffffffffffffffffffffffffffff168373ffffffffffffffffffffffffffffffffffffffff167f17307eab39ab6107e8899845ad3d59bd9653f200f220920489ca2b5937696c3183604051610edd91906121ae565b60405180910390a3505050565b60008373ffffffffffffffffffffffffffffffffffffffff163b1115611094578273ffffffffffffffffffffffffffffffffffffffff1663150b7a02868685856040518563ffffffff1660e01b8152600401610f49949392919061296c565b6020604051808303816000875af1925050508015610f8557506040513d601f19601f82011682018060405250810190610f8291906129cd565b60015b611009573d8060008114610fb5576040519150601f19603f3d011682016040523d82523d6000602084013e610fba565b606091505b50600081510361100157836040517f64a0ae92000000000000000000000000000000000000000000000000000000008152600401610ff8919061231f565b60405180910390fd5b805181602001fd5b63150b7a0260e01b7bffffffffffffffffffffffffffffffffffffffffffffffffffffffff1916817bffffffffffffffffffffffffffffffffffffffffffffffffffffffff19161461109257836040517f64a0ae92000000000000000000000000000000000000000000000000000000008152600401611089919061231f565b60405180910390fd5b505b5050505050565b60606110a682610b39565b506000600a600084815260200190815260200160002080546110c7906127e0565b80601f01602080910402602001604051908101604052809291908181526020018280546110f3906127e0565b80156111405780601f1061111557610100808354040283529160200191611140565b820191906000526020600020905b81548152906001019060200180831161112357829003601f168201915b5050505050905060006111516115c1565b905060008151036111665781925050506111a9565b60008251111561119b578082604051602001611183929190612a36565b604051602081830303815290604052925050506111a9565b6111a4846115d8565b925050505b919050565b6111c8828260405180602001604052806000815250611641565b5050565b80600a600084815260200190815260200160002090816111ec9190612c06565b507ff8e1a15aba9398e019f0b49df1a4fde98ee17ae345cb5f6b5e2c27f5033e8ce78260405161121c91906123b5565b60405180910390a15050565b60007f780e9d63000000000000000000000000000000000000000000000000000000007bffffffffffffffffffffffffffffffffffffffffffffffffffffffff1916827bffffffffffffffffffffffffffffffffffffffffffffffffffffffff1916148061129b575061129a82611665565b5b9050919050565b60006002600083815260200190815260200160002060009054906101000a900473ffffffffffffffffffffffffffffffffffffffff169050919050565b80806113185750600073ffffffffffffffffffffffffffffffffffffffff168273ffffffffffffffffffffffffffffffffffffffff1614155b1561144c57600061132884610b39565b9050600073ffffffffffffffffffffffffffffffffffffffff168373ffffffffffffffffffffffffffffffffffffffff161415801561139357508273ffffffffffffffffffffffffffffffffffffffff168173ffffffffffffffffffffffffffffffffffffffff1614155b80156113a657506113a481846109be565b155b156113e857826040517fa9fbf51f0000000000000000000000000000000000000000000000000000000081526004016113df919061231f565b60405180910390fd5b811561144a57838573ffffffffffffffffffffffffffffffffffffffff168273ffffffffffffffffffffffffffffffffffffffff167f8c5be1e5ebec7d5bd14f71427d1e84f3dd0314c0f7b2291e5b200ac8c7c3b92560405160405180910390a45b505b836004600085815260200190815260200160002060006101000a81548173ffffffffffffffffffffffffffffffffffffffff021916908373ffffffffffffffffffffffffffffffffffffffff16021790555050505050565b6000806114b2858585611747565b9050600073ffffffffffffffffffffffffffffffffffffffff168173ffffffffffffffffffffffffffffffffffffffff16036114f6576114f184611961565b611535565b8473ffffffffffffffffffffffffffffffffffffffff168173ffffffffffffffffffffffffffffffffffffffff16146115345761153381856119aa565b5b5b600073ffffffffffffffffffffffffffffffffffffffff168573ffffffffffffffffffffffffffffffffffffffff16036115775761157284611a95565b6115b6565b8473ffffffffffffffffffffffffffffffffffffffff168173ffffffffffffffffffffffffffffffffffffffff16146115b5576115b48585611b66565b5b5b809150509392505050565b606060405180602001604052806000815250905090565b60606115e382610b39565b5060006115ee6115c1565b9050600081511161160e5760405180602001604052806000815250611639565b8061161884611bf1565b604051602001611629929190612a36565b6040516020818303038152906040525b915050919050565b61164b8383611cbf565b611660611656610bfe565b6000858585610eea565b505050565b60007f80ac58cd000000000000000000000000000000000000000000000000000000007bffffffffffffffffffffffffffffffffffffffffffffffffffffffff1916827bffffffffffffffffffffffffffffffffffffffffffffffffffffffff1916148061173057507f5b5e139f000000000000000000000000000000000000000000000000000000007bffffffffffffffffffffffffffffffffffffffffffffffffffffffff1916827bffffffffffffffffffffffffffffffffffffffffffffffffffffffff1916145b80611740575061173f82611db8565b5b9050919050565b600080611753846112a2565b9050600073ffffffffffffffffffffffffffffffffffffffff168373ffffffffffffffffffffffffffffffffffffffff161461179557611794818486611e22565b5b600073ffffffffffffffffffffffffffffffffffffffff168173ffffffffffffffffffffffffffffffffffffffff1614611826576117d76000856000806112df565b6001600360008373ffffffffffffffffffffffffffffffffffffffff1673ffffffffffffffffffffffffffffffffffffffff168152602001908152602001600020600082825403925050819055505b600073ffffffffffffffffffffffffffffffffffffffff168573ffffffffffffffffffffffffffffffffffffffff16146118a9576001600360008773ffffffffffffffffffffffffffffffffffffffff1673ffffffffffffffffffffffffffffffffffffffff168152602001908152602001600020600082825401925050819055505b846002600086815260200190815260200160002060006101000a81548173ffffffffffffffffffffffffffffffffffffffff021916908373ffffffffffffffffffffffffffffffffffffffff160217905550838573ffffffffffffffffffffffffffffffffffffffff168273ffffffffffffffffffffffffffffffffffffffff167fddf252ad1be2c89b69c2b068fc378daa952ba7f163c4a11628f55a4df523b3ef60405160405180910390a4809150509392505050565b6008805490506009600083815260200190815260200160002081905550600881908060018154018082558091505060019003906000526020600020016000909190919091505550565b60006119b583610756565b90506000600760008481526020019081526020016000205490506000600660008673ffffffffffffffffffffffffffffffffffffffff1673ffffffffffffffffffffffffffffffffffffffff1681526020019081526020016000209050828214611a615760008160008581526020019081526020016000205490508082600085815260200190815260200160002081905550826007600083815260200190815260200160002081905550505b6007600085815260200190815260200160002060009055806000848152602001908152602001600020600090555050505050565b60006001600880549050611aa99190612cd8565b9050600060096000848152602001908152602001600020549050600060088381548110611ad957611ad8612871565b5b906000526020600020015490508060088381548110611afb57611afa612871565b5b906000526020600020018190555081600960008381526020019081526020016000208190555060096000858152602001908152602001600020600090556008805480611b4a57611b49612d0c565b5b6001900381819060005260206000200160009055905550505050565b60006001611b7384610756565b611b7d9190612cd8565b905081600660008573ffffffffffffffffffffffffffffffffffffffff1673ffffffffffffffffffffffffffffffffffffffff168152602001908152602001600020600083815260200190815260200160002081905550806007600084815260200190815260200160002081905550505050565b606060006001611c0084611ee6565b01905060008167ffffffffffffffff811115611c1f57611c1e6124c6565b5b6040519080825280601f01601f191660200182016040528015611c515781602001600182028036833780820191505090505b509050600082602001820190505b600115611cb4578080600190039150507f3031323334353637383961626364656600000000000000000000000000000000600a86061a8153600a8581611ca857611ca7612d3b565b5b04945060008503611c5f575b819350505050919050565b600073ffffffffffffffffffffffffffffffffffffffff168273ffffffffffffffffffffffffffffffffffffffff1603611d315760006040517f64a0ae92000000000000000000000000000000000000000000000000000000008152600401611d28919061231f565b60405180910390fd5b6000611d3f83836000610c18565b9050600073ffffffffffffffffffffffffffffffffffffffff168173ffffffffffffffffffffffffffffffffffffffff1614611db35760006040517f73c6ac6e000000000000000000000000000000000000000000000000000000008152600401611daa919061231f565b60405180910390fd5b505050565b60007f01ffc9a7000000000000000000000000000000000000000000000000000000007bffffffffffffffffffffffffffffffffffffffffffffffffffffffff1916827bffffffffffffffffffffffffffffffffffffffffffffffffffffffff1916149050919050565b611e2d838383612039565b611ee157600073ffffffffffffffffffffffffffffffffffffffff168373ffffffffffffffffffffffffffffffffffffffff1603611ea257806040517f7e273289000000000000000000000000000000000000000000000000000000008152600401611e9991906123b5565b60405180910390fd5b81816040517f177e802f000000000000000000000000000000000000000000000000000000008152600401611ed8929190612848565b60405180910390fd5b505050565b600080600090507a184f03e93ff9f4daa797ed6e38ed64bf6a1f0100000000000000008310611f44577a184f03e93ff9f4daa797ed6e38ed64bf6a1f0100000000000000008381611f3a57611f39612d3b565b5b0492506040810190505b6d04ee2d6d415b85acef81000000008310611f81576d04ee2d6d415b85acef81000000008381611f7757611f76612d3b565b5b0492506020810190505b662386f26fc100008310611fb057662386f26fc100008381611fa657611fa5612d3b565b5b0492506010810190505b6305f5e1008310611fd9576305f5e1008381611fcf57611fce612d3b565b5b0492506008810190505b6127108310611ffe576127108381611ff457611ff3612d3b565b5b0492506004810190505b60648310612021576064838161201757612016612d3b565b5b0492506002810190505b600a8310612030576001810190505b80915050919050565b60008073ffffffffffffffffffffffffffffffffffffffff168373ffffffffffffffffffffffffffffffffffffffff16141580156120f157508273ffffffffffffffffffffffffffffffffffffffff168473ffffffffffffffffffffffffffffffffffffffff1614806120b257506120b184846109be565b5b806120f057508273ffffffffffffffffffffffffffffffffffffffff166120d883610bc1565b73ffffffffffffffffffffffffffffffffffffffff16145b5b90509392505050565b6000604051905090565b600080fd5b600080fd5b60007fffffffff0000000000000000000000000000000000000000000000000000000082169050919050565b6121438161210e565b811461214e57600080fd5b50565b6000813590506121608161213a565b92915050565b60006020828403121561217c5761217b612104565b5b600061218a84828501612151565b91505092915050565b60008115159050919050565b6121a881612193565b82525050565b60006020820190506121c3600083018461219f565b92915050565b600081519050919050565b600082825260208201905092915050565b60005b838110156122035780820151818401526020810190506121e8565b60008484015250505050565b6000601f19601f8301169050919050565b600061222b826121c9565b61223581856121d4565b93506122458185602086016121e5565b61224e8161220f565b840191505092915050565b600060208201905081810360008301526122738184612220565b905092915050565b6000819050919050565b61228e8161227b565b811461229957600080fd5b50565b6000813590506122ab81612285565b92915050565b6000602082840312156122c7576122c6612104565b5b60006122d58482850161229c565b91505092915050565b600073ffffffffffffffffffffffffffffffffffffffff82169050919050565b6000612309826122de565b9050919050565b612319816122fe565b82525050565b60006020820190506123346000830184612310565b92915050565b612343816122fe565b811461234e57600080fd5b50565b6000813590506123608161233a565b92915050565b6000806040838503121561237d5761237c612104565b5b600061238b85828601612351565b925050602061239c8582860161229c565b9150509250929050565b6123af8161227b565b82525050565b60006020820190506123ca60008301846123a6565b92915050565b6000806000606084860312156123e9576123e8612104565b5b60006123f786828701612351565b935050602061240886828701612351565b92505060406124198682870161229c565b9150509250925092565b60006020828403121561243957612438612104565b5b600061244784828501612351565b91505092915050565b61245981612193565b811461246457600080fd5b50565b60008135905061247681612450565b92915050565b6000806040838503121561249357612492612104565b5b60006124a185828601612351565b92505060206124b285828601612467565b9150509250929050565b600080fd5b600080fd5b7f4e487b7100000000000000000000000000000000000000000000000000000000600052604160045260246000fd5b6124fe8261220f565b810181811067ffffffffffffffff8211171561251d5761251c6124c6565b5b80604052505050565b60006125306120fa565b905061253c82826124f5565b919050565b600067ffffffffffffffff82111561255c5761255b6124c6565b5b6125658261220f565b9050602081019050919050565b82818337600083830152505050565b600061259461258f84612541565b612526565b9050828152602081018484840111156125b0576125af6124c1565b5b6125bb848285612572565b509392505050565b600082601f8301126125d8576125d76124bc565b5b81356125e8848260208601612581565b91505092915050565b6000806000806080858703121561260b5761260a612104565b5b600061261987828801612351565b945050602061262a87828801612351565b935050604061263b8782880161229c565b925050606085013567ffffffffffffffff81111561265c5761265b612109565b5b612668878288016125c3565b91505092959194509250565b600067ffffffffffffffff82111561268f5761268e6124c6565b5b6126988261220f565b9050602081019050919050565b60006126b86126b384612674565b612526565b9050828152602081018484840111156126d4576126d36124c1565b5b6126df848285612572565b509392505050565b600082601f8301126126fc576126fb6124bc565b5b813561270c8482602086016126a5565b91505092915050565b6000806040838503121561272c5761272b612104565b5b600061273a85828601612351565b925050602083013567ffffffffffffffff81111561275b5761275a612109565b5b612767858286016126e7565b9150509250929050565b6000806040838503121561278857612787612104565b5b600061279685828601612351565b92505060206127a785828601612351565b9150509250929050565b7f4e487b7100000000000000000000000000000000000000000000000000000000600052602260045260246000fd5b600060028204905060018216806127f857607f821691505b60208210810361280b5761280a6127b1565b5b50919050565b60006060820190506128266000830186612310565b61283360208301856123a6565b6128406040830184612310565b949350505050565b600060408201905061285d6000830185612310565b61286a60208301846123a6565b9392505050565b7f4e487b7100000000000000000000000000000000000000000000000000000000600052603260045260246000fd5b7f4e487b7100000000000000000000000000000000000000000000000000000000600052601160045260246000fd5b60006128da8261227b565b91507fffffffffffffffffffffffffffffffffffffffffffffffffffffffffffffffff820361290c5761290b6128a0565b5b600182019050919050565b600081519050919050565b600082825260208201905092915050565b600061293e82612917565b6129488185612922565b93506129588185602086016121e5565b6129618161220f565b840191505092915050565b60006080820190506129816000830187612310565b61298e6020830186612310565b61299b60408301856123a6565b81810360608301526129ad8184612933565b905095945050505050565b6000815190506129c78161213a565b92915050565b6000602082840312156129e3576129e2612104565b5b60006129f1848285016129b8565b91505092915050565b600081905092915050565b6000612a10826121c9565b612a1a81856129fa565b9350612a2a8185602086016121e5565b80840191505092915050565b6000612a428285612a05565b9150612a4e8284612a05565b91508190509392505050565b60008190508160005260206000209050919050565b60006020601f8301049050919050565b600082821b905092915050565b600060088302612abc7fffffffffffffffffffffffffffffffffffffffffffffffffffffffffffffffff82612a7f565b612ac68683612a7f565b95508019841693508086168417925050509392505050565b6000819050919050565b6000612b03612afe612af98461227b565b612ade565b61227b565b9050919050565b6000819050919050565b612b1d83612ae8565b612b31612b2982612b0a565b848454612a8c565b825550505050565b600090565b612b46612b39565b612b51818484612b14565b505050565b5b81811015612b7557612b6a600082612b3e565b600181019050612b57565b5050565b601f821115612bba57612b8b81612a5a565b612b9484612a6f565b81016020851015612ba3578190505b612bb7612baf85612a6f565b830182612b56565b50505b505050565b600082821c905092915050565b6000612bdd60001984600802612bbf565b1980831691505092915050565b6000612bf68383612bcc565b9150826002028217905092915050565b612c0f826121c9565b67ffffffffffffffff811115612c2857612c276124c6565b5b612c3282546127e0565b612c3d828285612b79565b600060209050601f831160018114612c705760008415612c5e578287015190505b612c688582612bea565b865550612cd0565b601f198416612c7e86612a5a565b60005b82811015612ca657848901518255600182019150602085019450602081019050612c81565b86831015612cc35784890151612cbf601f891682612bcc565b8355505b6001600288020188555050505b505050505050565b6000612ce38261227b565b9150612cee8361227b565b9250828203905081811115612d0657612d056128a0565b5b92915050565b7f4e487b7100000000000000000000000000000000000000000000000000000000600052603160045260246000fd5b7f4e487b7100000000000000000000000000000000000000000000000000000000600052601260045260246000fdfea2646970667358221220449c37e7074e0b391f2928b1b4cd1bc78fe0f2d1694931f9b39dd5df2799390064736f6c63430008140033",
  "linkReferences": {},
  "deployedLinkReferences": {}
}